{"contracts/DAM.sol":{"DigitalAssetMarket":{"abi":[{"inputs":[{"internalType":"uint8","name":"_shareOfSale","type":"uint8"}],"stateMutability":"nonpayable","type":"constructor"},{"anonymous":false,"inputs":[{"indexed":false,"internalType":"address","name":"seller","type":"address"},{"indexed":false,"internalType":"string","name":"name","type":"string"},{"indexed":false,"internalType":"uint256","name":"index","type":"uint256"}],"name":"NewAsset","type":"event"},{"anonymous":false,"inputs":[{"indexed":false,"internalType":"address","name":"seller","type":"address"},{"indexed":false,"internalType":"address","name":"buyer","type":"address"},{"indexed":false,"internalType":"uint256","name":"assetId","type":"uint256"},{"indexed":false,"internalType":"uint256","name":"price","type":"uint256"},{"indexed":false,"internalType":"uint256","name":"share","type":"uint256"},{"indexed":false,"internalType":"uint256","name":"time","type":"uint256"}],"name":"NewSale","type":"event"},{"inputs":[{"internalType":"string","name":"_name","type":"string"},{"internalType":"uint256","name":"_price","type":"uint256"}],"name":"addAsset","outputs":[],"stateMutability":"nonpayable","type":"function"},{"inputs":[{"internalType":"uint256","name":"_assetIndex","type":"uint256"}],"name":"assetData","outputs":[{"internalType":"string","name":"","type":"string"},{"internalType":"uint256","name":"","type":"uint256"},{"internalType":"uint8","name":"","type":"uint8"}],"stateMutability":"view","type":"function"},{"inputs":[{"internalType":"uint256","name":"","type":"uint256"}],"name":"assets","outputs":[{"internalType":"string","name":"name","type":"string"},{"internalType":"address","name":"owner","type":"address"},{"internalType":"enum DigitalAssetMarket.AssetState","name":"state","type":"uint8"},{"internalType":"uint256","name":"price","type":"uint256"}],"stateMutability":"view","type":"function"},{"inputs":[],"name":"assetsCount","outputs":[{"internalType":"uint256","name":"","type":"uint256"}],"stateMutability":"view","type":"function"},{"inputs":[{"internalType":"uint256","name":"_assetIndex","type":"uint256"}],"name":"buy","outputs":[],"stateMutability":"payable","type":"function"},{"inputs":[],"name":"sharePercent","outputs":[{"internalType":"uint8","name":"","type":"uint8"}],"stateMutability":"view","type":"function"},{"inputs":[{"internalType":"uint256","name":"_amount","type":"uint256"}],"name":"withdraw","outputs":[],"stateMutability":"nonpayable","type":"function"}],"evm":{"bytecode":{"linkReferences":{},"object":"60806040523480156200001157600080fd5b5060405162001dcb38038062001dcb8339818101604052810190620000379190620000dd565b33600160006101000a81548173ffffffffffffffffffffffffffffffffffffffff021916908373ffffffffffffffffffffffffffffffffffffffff16021790555080600160146101000a81548160ff021916908360ff160217905550506200010f565b600080fd5b600060ff82169050919050565b620000b7816200009f565b8114620000c357600080fd5b50565b600081519050620000d781620000ac565b92915050565b600060208284031215620000f657620000f56200009a565b5b60006200010684828501620000c6565b91505092915050565b611cac806200011f6000396000f3fe6080604052600436106100705760003560e01c8063c15edf5f1161004e578063c15edf5f14610106578063cd9df19014610131578063cf35bdd01461015c578063d96a094a1461019c57610070565b80631bc7ffe9146100755780632e1a7d4d1461009e578063ac823a7e146100c7575b600080fd5b34801561008157600080fd5b5061009c600480360381019061009791906110a8565b6101b8565b005b3480156100aa57600080fd5b506100c560048036038101906100c09190611104565b6103df565b005b3480156100d357600080fd5b506100ee60048036038101906100e99190611104565b610545565b6040516100fd939291906111db565b60405180910390f35b34801561011257600080fd5b5061011b6107ad565b6040516101289190611219565b60405180910390f35b34801561013d57600080fd5b50610146610854565b6040516101539190611234565b60405180910390f35b34801561016857600080fd5b50610183600480360381019061017e9190611104565b6108f1565b6040516101939493929190611307565b60405180910390f35b6101b660048036038101906101b19190611104565b6109e6565b005b60008251116101fc576040517f08c379a00000000000000000000000000000000000000000000000000000000081526004016101f39061139f565b60405180910390fd5b6000811161023f576040517f08c379a00000000000000000000000000000000000000000000000000000000081526004016102369061140b565b60405180910390fd5b610247610ec8565b82816000018190525033816020019073ffffffffffffffffffffffffffffffffffffffff16908173ffffffffffffffffffffffffffffffffffffffff16815250506000816040019060018111156102a1576102a0611290565b5b908160018111156102b5576102b4611290565b5b8152505081816060018181525050600081908060018154018082558091505060019003906000526020600020906003020160009091909190915060008201518160000190816103049190611637565b5060208201518160010160006101000a81548173ffffffffffffffffffffffffffffffffffffffff021916908373ffffffffffffffffffffffffffffffffffffffff16021790555060408201518160010160146101000a81548160ff0219169083600181111561037757610376611290565b5b02179055506060820151816002015550506000600160008054905061039c9190611738565b90507faab46008cd26ed1bca30689c348d8e458fee75c349407c27063a00cfadc443f63385836040516103d19392919061176c565b60405180910390a150505050565b600160009054906101000a900473ffffffffffffffffffffffffffffffffffffffff1673ffffffffffffffffffffffffffffffffffffffff163373ffffffffffffffffffffffffffffffffffffffff161461046f576040517f08c379a00000000000000000000000000000000000000000000000000000000081526004016104669061181c565b60405180910390fd5b60008111801561048157506002548111155b6104c0576040517f08c379a00000000000000000000000000000000000000000000000000000000081526004016104b790611888565b60405180910390fd5b80600260008282546104d29190611738565b92505081905550600160009054906101000a900473ffffffffffffffffffffffffffffffffffffffff1673ffffffffffffffffffffffffffffffffffffffff166108fc829081150290604051600060405180830381858888f19350505050158015610541573d6000803e3d6000fd5b5050565b6060600080600160009054906101000a900473ffffffffffffffffffffffffffffffffffffffff1673ffffffffffffffffffffffffffffffffffffffff163373ffffffffffffffffffffffffffffffffffffffff16146105da576040517f08c379a00000000000000000000000000000000000000000000000000000000081526004016105d19061191a565b60405180910390fd5b8360008054905011610621576040517f08c379a0000000000000000000000000000000000000000000000000000000008152600401610618906119ac565b60405180910390fd5b6000808581548110610636576106356119cc565b5b906000526020600020906003020160405180608001604052908160008201805461065f9061145a565b80601f016020809104026020016040519081016040528092919081815260200182805461068b9061145a565b80156106d85780601f106106ad576101008083540402835291602001916106d8565b820191906000526020600020905b8154815290600101906020018083116106bb57829003601f168201915b505050505081526020016001820160009054906101000a900473ffffffffffffffffffffffffffffffffffffffff1673ffffffffffffffffffffffffffffffffffffffff1673ffffffffffffffffffffffffffffffffffffffff1681526020016001820160149054906101000a900460ff16600181111561075c5761075b611290565b5b600181111561076e5761076d611290565b5b81526020016002820154815250509050806000015181606001518260400151600181111561079f5761079e611290565b5b935093509350509193909250565b6000600160009054906101000a900473ffffffffffffffffffffffffffffffffffffffff1673ffffffffffffffffffffffffffffffffffffffff163373ffffffffffffffffffffffffffffffffffffffff161461083f576040517f08c379a00000000000000000000000000000000000000000000000000000000081526004016108369061191a565b60405180910390fd5b600160149054906101000a900460ff16905090565b6000600160009054906101000a900473ffffffffffffffffffffffffffffffffffffffff1673ffffffffffffffffffffffffffffffffffffffff163373ffffffffffffffffffffffffffffffffffffffff16146108e6576040517f08c379a00000000000000000000000000000000000000000000000000000000081526004016108dd9061191a565b60405180910390fd5b600080549050905090565b6000818154811061090157600080fd5b90600052602060002090600302016000915090508060000180546109249061145a565b80601f01602080910402602001604051908101604052809291908181526020018280546109509061145a565b801561099d5780601f106109725761010080835404028352916020019161099d565b820191906000526020600020905b81548152906001019060200180831161098057829003601f168201915b5050505050908060010160009054906101000a900473ffffffffffffffffffffffffffffffffffffffff16908060010160149054906101000a900460ff16908060020154905084565b8060008054905011610a2d576040517f08c379a0000000000000000000000000000000000000000000000000000000008152600401610a24906119ac565b60405180910390fd5b6000808281548110610a4257610a416119cc565b5b9060005260206000209060030201604051806080016040529081600082018054610a6b9061145a565b80601f0160208091040260200160405190810160405280929190818152602001828054610a979061145a565b8015610ae45780601f10610ab957610100808354040283529160200191610ae4565b820191906000526020600020905b815481529060010190602001808311610ac757829003601f168201915b505050505081526020016001820160009054906101000a900473ffffffffffffffffffffffffffffffffffffffff1673ffffffffffffffffffffffffffffffffffffffff1673ffffffffffffffffffffffffffffffffffffffff1681526020016001820160149054906101000a900460ff166001811115610b6857610b67611290565b5b6001811115610b7a57610b79611290565b5b815260200160028201548152505090503373ffffffffffffffffffffffffffffffffffffffff16816020015173ffffffffffffffffffffffffffffffffffffffff1603610bfc576040517f08c379a0000000000000000000000000000000000000000000000000000000008152600401610bf390611a47565b60405180910390fd5b60006001811115610c1057610c0f611290565b5b81604001516001811115610c2757610c26611290565b5b14610c67576040517f08c379a0000000000000000000000000000000000000000000000000000000008152600401610c5e90611ab3565b60405180910390fd5b34816060015114610cad576040517f08c379a0000000000000000000000000000000000000000000000000000000008152600401610ca490611b1f565b60405180910390fd5b600181604001906001811115610cc657610cc5611290565b5b90816001811115610cda57610cd9611290565b5b8152505060006064600160149054906101000a900460ff1660ff168360600151610d049190611b3f565b610d0e9190611bb0565b9050816020015173ffffffffffffffffffffffffffffffffffffffff166108fc8234610d3a9190611738565b9081150290604051600060405180830381858888f19350505050158015610d65573d6000803e3d6000fd5b508060026000828254610d789190611be1565b9250508190555060008260200151905033836020019073ffffffffffffffffffffffffffffffffffffffff16908173ffffffffffffffffffffffffffffffffffffffff16815250508260008581548110610dd557610dd46119cc565b5b90600052602060002090600302016000820151816000019081610df89190611637565b5060208201518160010160006101000a81548173ffffffffffffffffffffffffffffffffffffffff021916908373ffffffffffffffffffffffffffffffffffffffff16021790555060408201518160010160146101000a81548160ff02191690836001811115610e6b57610e6a611290565b5b0217905550606082015181600201559050507fe56a1624645c81765727de04787a70342ef3765058c66daea4cb09ee9513d40981338686606001518642604051610eba96959493929190611c15565b60405180910390a150505050565b604051806080016040528060608152602001600073ffffffffffffffffffffffffffffffffffffffff16815260200160006001811115610f0b57610f0a611290565b5b8152602001600081525090565b6000604051905090565b600080fd5b600080fd5b600080fd5b600080fd5b6000601f19601f8301169050919050565b7f4e487b7100000000000000000000000000000000000000000000000000000000600052604160045260246000fd5b610f7f82610f36565b810181811067ffffffffffffffff82111715610f9e57610f9d610f47565b5b80604052505050565b6000610fb1610f18565b9050610fbd8282610f76565b919050565b600067ffffffffffffffff821115610fdd57610fdc610f47565b5b610fe682610f36565b9050602081019050919050565b82818337600083830152505050565b600061101561101084610fc2565b610fa7565b90508281526020810184848401111561103157611030610f31565b5b61103c848285610ff3565b509392505050565b600082601f83011261105957611058610f2c565b5b8135611069848260208601611002565b91505092915050565b6000819050919050565b61108581611072565b811461109057600080fd5b50565b6000813590506110a28161107c565b92915050565b600080604083850312156110bf576110be610f22565b5b600083013567ffffffffffffffff8111156110dd576110dc610f27565b5b6110e985828601611044565b92505060206110fa85828601611093565b9150509250929050565b60006020828403121561111a57611119610f22565b5b600061112884828501611093565b91505092915050565b600081519050919050565b600082825260208201905092915050565b60005b8381101561116b578082015181840152602081019050611150565b60008484015250505050565b600061118282611131565b61118c818561113c565b935061119c81856020860161114d565b6111a581610f36565b840191505092915050565b6111b981611072565b82525050565b600060ff82169050919050565b6111d5816111bf565b82525050565b600060608201905081810360008301526111f58186611177565b905061120460208301856111b0565b61121160408301846111cc565b949350505050565b600060208201905061122e60008301846111cc565b92915050565b600060208201905061124960008301846111b0565b92915050565b600073ffffffffffffffffffffffffffffffffffffffff82169050919050565b600061127a8261124f565b9050919050565b61128a8161126f565b82525050565b7f4e487b7100000000000000000000000000000000000000000000000000000000600052602160045260246000fd5b600281106112d0576112cf611290565b5b50565b60008190506112e1826112bf565b919050565b60006112f1826112d3565b9050919050565b611301816112e6565b82525050565b600060808201905081810360008301526113218187611177565b90506113306020830186611281565b61133d60408301856112f8565b61134a60608301846111b0565b95945050505050565b7f4e616d6520666f72206173736574206973207265717569726564000000000000600082015250565b6000611389601a8361113c565b915061139482611353565b602082019050919050565b600060208201905081810360008301526113b88161137c565b9050919050565b7f5072696365206d7573742062652067726561746572207468616e207a65726f21600082015250565b60006113f560208361113c565b9150611400826113bf565b602082019050919050565b60006020820190508181036000830152611424816113e8565b9050919050565b7f4e487b7100000000000000000000000000000000000000000000000000000000600052602260045260246000fd5b6000600282049050600182168061147257607f821691505b6020821081036114855761148461142b565b5b50919050565b60008190508160005260206000209050919050565b60006020601f8301049050919050565b600082821b905092915050565b6000600883026114ed7fffffffffffffffffffffffffffffffffffffffffffffffffffffffffffffffff826114b0565b6114f786836114b0565b95508019841693508086168417925050509392505050565b6000819050919050565b600061153461152f61152a84611072565b61150f565b611072565b9050919050565b6000819050919050565b61154e83611519565b61156261155a8261153b565b8484546114bd565b825550505050565b600090565b61157761156a565b611582818484611545565b505050565b5b818110156115a65761159b60008261156f565b600181019050611588565b5050565b601f8211156115eb576115bc8161148b565b6115c5846114a0565b810160208510156115d4578190505b6115e86115e0856114a0565b830182611587565b50505b505050565b600082821c905092915050565b600061160e600019846008026115f0565b1980831691505092915050565b600061162783836115fd565b9150826002028217905092915050565b61164082611131565b67ffffffffffffffff81111561165957611658610f47565b5b611663825461145a565b61166e8282856115aa565b600060209050601f8311600181146116a1576000841561168f578287015190505b611699858261161b565b865550611701565b601f1984166116af8661148b565b60005b828110156116d7578489015182556001820191506020850194506020810190506116b2565b868310156116f457848901516116f0601f8916826115fd565b8355505b6001600288020188555050505b505050505050565b7f4e487b7100000000000000000000000000000000000000000000000000000000600052601160045260246000fd5b600061174382611072565b915061174e83611072565b925082820390508181111561176657611765611709565b5b92915050565b60006060820190506117816000830186611281565b81810360208301526117938185611177565b90506117a260408301846111b0565b949350505050565b7f4f6e6c79206d61726b6574206f776e65722063616e207769746864726177206d60008201527f6f6e657921000000000000000000000000000000000000000000000000000000602082015250565b600061180660258361113c565b9150611811826117aa565b604082019050919050565b60006020820190508181036000830152611835816117f9565b9050919050565b7f4e6f742061636365707461626c65206d6f6e65792076616c7565210000000000600082015250565b6000611872601b8361113c565b915061187d8261183c565b602082019050919050565b600060208201905081810360008301526118a181611865565b9050919050565b7f4f6e6c79206d61726b6574206f776e65722063616e2063616c6c20746869732060008201527f6d6574686f642100000000000000000000000000000000000000000000000000602082015250565b600061190460278361113c565b915061190f826118a8565b604082019050919050565b60006020820190508181036000830152611933816118f7565b9050919050565b7f546865206173736574207265666572656e6365206973206e6f742076616c696460008201527f2100000000000000000000000000000000000000000000000000000000000000602082015250565b600061199660218361113c565b91506119a18261193a565b604082019050919050565b600060208201905081810360008301526119c581611989565b9050919050565b7f4e487b7100000000000000000000000000000000000000000000000000000000600052603260045260246000fd5b7f54686973206974656d20697320796f7572732100000000000000000000000000600082015250565b6000611a3160138361113c565b9150611a3c826119fb565b602082019050919050565b60006020820190508181036000830152611a6081611a24565b9050919050565b7f54686973206974656d206973206e6f7420666f722073616c6521000000000000600082015250565b6000611a9d601a8361113c565b9150611aa882611a67565b602082019050919050565b60006020820190508181036000830152611acc81611a90565b9050919050565b7f56616c756520616e642070726963652061726520646966666572656e74210000600082015250565b6000611b09601e8361113c565b9150611b1482611ad3565b602082019050919050565b60006020820190508181036000830152611b3881611afc565b9050919050565b6000611b4a82611072565b9150611b5583611072565b9250828202611b6381611072565b91508282048414831517611b7a57611b79611709565b5b5092915050565b7f4e487b7100000000000000000000000000000000000000000000000000000000600052601260045260246000fd5b6000611bbb82611072565b9150611bc683611072565b925082611bd657611bd5611b81565b5b828204905092915050565b6000611bec82611072565b9150611bf783611072565b9250828201905080821115611c0f57611c0e611709565b5b92915050565b600060c082019050611c2a6000830189611281565b611c376020830188611281565b611c4460408301876111b0565b611c5160608301866111b0565b611c5e60808301856111b0565b611c6b60a08301846111b0565b97965050505050505056fea2646970667358221220f1bc5088f017300505db855baf4c1ad393eb5ff46d7205d4c102d45959a5dc9764736f6c63430008130033","opcodes":"PUSH1 0x80 PUSH1 0x40 MSTORE CALLVALUE DUP1 ISZERO PUSH3 0x11 JUMPI PUSH1 0x0 DUP1 REVERT JUMPDEST POP PUSH1 0x40 MLOAD PUSH3 0x1DCB CODESIZE SUB DUP1 PUSH3 0x1DCB DUP4 CODECOPY DUP2 DUP2 ADD PUSH1 0x40 MSTORE DUP2 ADD SWAP1 PUSH3 0x37 SWAP2 SWAP1 PUSH3 0xDD JUMP JUMPDEST CALLER PUSH1 0x1 PUSH1 0x0 PUSH2 0x100 EXP DUP2 SLOAD DUP2 PUSH20 0xFFFFFFFFFFFFFFFFFFFFFFFFFFFFFFFFFFFFFFFF MUL NOT AND SWAP1 DUP4 PUSH20 0xFFFFFFFFFFFFFFFFFFFFFFFFFFFFFFFFFFFFFFFF AND MUL OR SWAP1 SSTORE POP DUP1 PUSH1 0x1 PUSH1 0x14 PUSH2 0x100 EXP DUP2 SLOAD DUP2 PUSH1 0xFF MUL NOT AND SWAP1 DUP4 PUSH1 0xFF AND MUL OR SWAP1 SSTORE POP POP PUSH3 0x10F JUMP JUMPDEST PUSH1 0x0 DUP1 REVERT JUMPDEST PUSH1 0x0 PUSH1 0xFF DUP3 AND SWAP1 POP SWAP2 SWAP1 POP JUMP JUMPDEST PUSH3 0xB7 DUP2 PUSH3 0x9F JUMP JUMPDEST DUP2 EQ PUSH3 0xC3 JUMPI PUSH1 0x0 DUP1 REVERT JUMPDEST POP JUMP JUMPDEST PUSH1 0x0 DUP2 MLOAD SWAP1 POP PUSH3 0xD7 DUP2 PUSH3 0xAC JUMP JUMPDEST SWAP3 SWAP2 POP POP JUMP JUMPDEST PUSH1 0x0 PUSH1 0x20 DUP3 DUP5 SUB SLT ISZERO PUSH3 0xF6 JUMPI PUSH3 0xF5 PUSH3 0x9A JUMP JUMPDEST JUMPDEST PUSH1 0x0 PUSH3 0x106 DUP5 DUP3 DUP6 ADD PUSH3 0xC6 JUMP JUMPDEST SWAP2 POP POP SWAP3 SWAP2 POP POP JUMP JUMPDEST PUSH2 0x1CAC DUP1 PUSH3 0x11F PUSH1 0x0 CODECOPY PUSH1 0x0 RETURN INVALID PUSH1 0x80 PUSH1 0x40 MSTORE PUSH1 0x4 CALLDATASIZE LT PUSH2 0x70 JUMPI PUSH1 0x0 CALLDATALOAD PUSH1 0xE0 SHR DUP1 PUSH4 0xC15EDF5F GT PUSH2 0x4E JUMPI DUP1 PUSH4 0xC15EDF5F EQ PUSH2 0x106 JUMPI DUP1 PUSH4 0xCD9DF190 EQ PUSH2 0x131 JUMPI DUP1 PUSH4 0xCF35BDD0 EQ PUSH2 0x15C JUMPI DUP1 PUSH4 0xD96A094A EQ PUSH2 0x19C JUMPI PUSH2 0x70 JUMP JUMPDEST DUP1 PUSH4 0x1BC7FFE9 EQ PUSH2 0x75 JUMPI DUP1 PUSH4 0x2E1A7D4D EQ PUSH2 0x9E JUMPI DUP1 PUSH4 0xAC823A7E EQ PUSH2 0xC7 JUMPI JUMPDEST PUSH1 0x0 DUP1 REVERT JUMPDEST CALLVALUE DUP1 ISZERO PUSH2 0x81 JUMPI PUSH1 0x0 DUP1 REVERT JUMPDEST POP PUSH2 0x9C PUSH1 0x4 DUP1 CALLDATASIZE SUB DUP2 ADD SWAP1 PUSH2 0x97 SWAP2 SWAP1 PUSH2 0x10A8 JUMP JUMPDEST PUSH2 0x1B8 JUMP JUMPDEST STOP JUMPDEST CALLVALUE DUP1 ISZERO PUSH2 0xAA JUMPI PUSH1 0x0 DUP1 REVERT JUMPDEST POP PUSH2 0xC5 PUSH1 0x4 DUP1 CALLDATASIZE SUB DUP2 ADD SWAP1 PUSH2 0xC0 SWAP2 SWAP1 PUSH2 0x1104 JUMP JUMPDEST PUSH2 0x3DF JUMP JUMPDEST STOP JUMPDEST CALLVALUE DUP1 ISZERO PUSH2 0xD3 JUMPI PUSH1 0x0 DUP1 REVERT JUMPDEST POP PUSH2 0xEE PUSH1 0x4 DUP1 CALLDATASIZE SUB DUP2 ADD SWAP1 PUSH2 0xE9 SWAP2 SWAP1 PUSH2 0x1104 JUMP JUMPDEST PUSH2 0x545 JUMP JUMPDEST PUSH1 0x40 MLOAD PUSH2 0xFD SWAP4 SWAP3 SWAP2 SWAP1 PUSH2 0x11DB JUMP JUMPDEST PUSH1 0x40 MLOAD DUP1 SWAP2 SUB SWAP1 RETURN JUMPDEST CALLVALUE DUP1 ISZERO PUSH2 0x112 JUMPI PUSH1 0x0 DUP1 REVERT JUMPDEST POP PUSH2 0x11B PUSH2 0x7AD JUMP JUMPDEST PUSH1 0x40 MLOAD PUSH2 0x128 SWAP2 SWAP1 PUSH2 0x1219 JUMP JUMPDEST PUSH1 0x40 MLOAD DUP1 SWAP2 SUB SWAP1 RETURN JUMPDEST CALLVALUE DUP1 ISZERO PUSH2 0x13D JUMPI PUSH1 0x0 DUP1 REVERT JUMPDEST POP PUSH2 0x146 PUSH2 0x854 JUMP JUMPDEST PUSH1 0x40 MLOAD PUSH2 0x153 SWAP2 SWAP1 PUSH2 0x1234 JUMP JUMPDEST PUSH1 0x40 MLOAD DUP1 SWAP2 SUB SWAP1 RETURN JUMPDEST CALLVALUE DUP1 ISZERO PUSH2 0x168 JUMPI PUSH1 0x0 DUP1 REVERT JUMPDEST POP PUSH2 0x183 PUSH1 0x4 DUP1 CALLDATASIZE SUB DUP2 ADD SWAP1 PUSH2 0x17E SWAP2 SWAP1 PUSH2 0x1104 JUMP JUMPDEST PUSH2 0x8F1 JUMP JUMPDEST PUSH1 0x40 MLOAD PUSH2 0x193 SWAP5 SWAP4 SWAP3 SWAP2 SWAP1 PUSH2 0x1307 JUMP JUMPDEST PUSH1 0x40 MLOAD DUP1 SWAP2 SUB SWAP1 RETURN JUMPDEST PUSH2 0x1B6 PUSH1 0x4 DUP1 CALLDATASIZE SUB DUP2 ADD SWAP1 PUSH2 0x1B1 SWAP2 SWAP1 PUSH2 0x1104 JUMP JUMPDEST PUSH2 0x9E6 JUMP JUMPDEST STOP JUMPDEST PUSH1 0x0 DUP3 MLOAD GT PUSH2 0x1FC JUMPI PUSH1 0x40 MLOAD PUSH32 0x8C379A000000000000000000000000000000000000000000000000000000000 DUP2 MSTORE PUSH1 0x4 ADD PUSH2 0x1F3 SWAP1 PUSH2 0x139F JUMP JUMPDEST PUSH1 0x40 MLOAD DUP1 SWAP2 SUB SWAP1 REVERT JUMPDEST PUSH1 0x0 DUP2 GT PUSH2 0x23F JUMPI PUSH1 0x40 MLOAD PUSH32 0x8C379A000000000000000000000000000000000000000000000000000000000 DUP2 MSTORE PUSH1 0x4 ADD PUSH2 0x236 SWAP1 PUSH2 0x140B JUMP JUMPDEST PUSH1 0x40 MLOAD DUP1 SWAP2 SUB SWAP1 REVERT JUMPDEST PUSH2 0x247 PUSH2 0xEC8 JUMP JUMPDEST DUP3 DUP2 PUSH1 0x0 ADD DUP2 SWAP1 MSTORE POP CALLER DUP2 PUSH1 0x20 ADD SWAP1 PUSH20 0xFFFFFFFFFFFFFFFFFFFFFFFFFFFFFFFFFFFFFFFF AND SWAP1 DUP2 PUSH20 0xFFFFFFFFFFFFFFFFFFFFFFFFFFFFFFFFFFFFFFFF AND DUP2 MSTORE POP POP PUSH1 0x0 DUP2 PUSH1 0x40 ADD SWAP1 PUSH1 0x1 DUP2 GT ISZERO PUSH2 0x2A1 JUMPI PUSH2 0x2A0 PUSH2 0x1290 JUMP JUMPDEST JUMPDEST SWAP1 DUP2 PUSH1 0x1 DUP2 GT ISZERO PUSH2 0x2B5 JUMPI PUSH2 0x2B4 PUSH2 0x1290 JUMP JUMPDEST JUMPDEST DUP2 MSTORE POP POP DUP2 DUP2 PUSH1 0x60 ADD DUP2 DUP2 MSTORE POP POP PUSH1 0x0 DUP2 SWAP1 DUP1 PUSH1 0x1 DUP2 SLOAD ADD DUP1 DUP3 SSTORE DUP1 SWAP2 POP POP PUSH1 0x1 SWAP1 SUB SWAP1 PUSH1 0x0 MSTORE PUSH1 0x20 PUSH1 0x0 KECCAK256 SWAP1 PUSH1 0x3 MUL ADD PUSH1 0x0 SWAP1 SWAP2 SWAP1 SWAP2 SWAP1 SWAP2 POP PUSH1 0x0 DUP3 ADD MLOAD DUP2 PUSH1 0x0 ADD SWAP1 DUP2 PUSH2 0x304 SWAP2 SWAP1 PUSH2 0x1637 JUMP JUMPDEST POP PUSH1 0x20 DUP3 ADD MLOAD DUP2 PUSH1 0x1 ADD PUSH1 0x0 PUSH2 0x100 EXP DUP2 SLOAD DUP2 PUSH20 0xFFFFFFFFFFFFFFFFFFFFFFFFFFFFFFFFFFFFFFFF MUL NOT AND SWAP1 DUP4 PUSH20 0xFFFFFFFFFFFFFFFFFFFFFFFFFFFFFFFFFFFFFFFF AND MUL OR SWAP1 SSTORE POP PUSH1 0x40 DUP3 ADD MLOAD DUP2 PUSH1 0x1 ADD PUSH1 0x14 PUSH2 0x100 EXP DUP2 SLOAD DUP2 PUSH1 0xFF MUL NOT AND SWAP1 DUP4 PUSH1 0x1 DUP2 GT ISZERO PUSH2 0x377 JUMPI PUSH2 0x376 PUSH2 0x1290 JUMP JUMPDEST JUMPDEST MUL OR SWAP1 SSTORE POP PUSH1 0x60 DUP3 ADD MLOAD DUP2 PUSH1 0x2 ADD SSTORE POP POP PUSH1 0x0 PUSH1 0x1 PUSH1 0x0 DUP1 SLOAD SWAP1 POP PUSH2 0x39C SWAP2 SWAP1 PUSH2 0x1738 JUMP JUMPDEST SWAP1 POP PUSH32 0xAAB46008CD26ED1BCA30689C348D8E458FEE75C349407C27063A00CFADC443F6 CALLER DUP6 DUP4 PUSH1 0x40 MLOAD PUSH2 0x3D1 SWAP4 SWAP3 SWAP2 SWAP1 PUSH2 0x176C JUMP JUMPDEST PUSH1 0x40 MLOAD DUP1 SWAP2 SUB SWAP1 LOG1 POP POP POP POP JUMP JUMPDEST PUSH1 0x1 PUSH1 0x0 SWAP1 SLOAD SWAP1 PUSH2 0x100 EXP SWAP1 DIV PUSH20 0xFFFFFFFFFFFFFFFFFFFFFFFFFFFFFFFFFFFFFFFF AND PUSH20 0xFFFFFFFFFFFFFFFFFFFFFFFFFFFFFFFFFFFFFFFF AND CALLER PUSH20 0xFFFFFFFFFFFFFFFFFFFFFFFFFFFFFFFFFFFFFFFF AND EQ PUSH2 0x46F JUMPI PUSH1 0x40 MLOAD PUSH32 0x8C379A000000000000000000000000000000000000000000000000000000000 DUP2 MSTORE PUSH1 0x4 ADD PUSH2 0x466 SWAP1 PUSH2 0x181C JUMP JUMPDEST PUSH1 0x40 MLOAD DUP1 SWAP2 SUB SWAP1 REVERT JUMPDEST PUSH1 0x0 DUP2 GT DUP1 ISZERO PUSH2 0x481 JUMPI POP PUSH1 0x2 SLOAD DUP2 GT ISZERO JUMPDEST PUSH2 0x4C0 JUMPI PUSH1 0x40 MLOAD PUSH32 0x8C379A000000000000000000000000000000000000000000000000000000000 DUP2 MSTORE PUSH1 0x4 ADD PUSH2 0x4B7 SWAP1 PUSH2 0x1888 JUMP JUMPDEST PUSH1 0x40 MLOAD DUP1 SWAP2 SUB SWAP1 REVERT JUMPDEST DUP1 PUSH1 0x2 PUSH1 0x0 DUP3 DUP3 SLOAD PUSH2 0x4D2 SWAP2 SWAP1 PUSH2 0x1738 JUMP JUMPDEST SWAP3 POP POP DUP2 SWAP1 SSTORE POP PUSH1 0x1 PUSH1 0x0 SWAP1 SLOAD SWAP1 PUSH2 0x100 EXP SWAP1 DIV PUSH20 0xFFFFFFFFFFFFFFFFFFFFFFFFFFFFFFFFFFFFFFFF AND PUSH20 0xFFFFFFFFFFFFFFFFFFFFFFFFFFFFFFFFFFFFFFFF AND PUSH2 0x8FC DUP3 SWAP1 DUP2 ISZERO MUL SWAP1 PUSH1 0x40 MLOAD PUSH1 0x0 PUSH1 0x40 MLOAD DUP1 DUP4 SUB DUP2 DUP6 DUP9 DUP9 CALL SWAP4 POP POP POP POP ISZERO DUP1 ISZERO PUSH2 0x541 JUMPI RETURNDATASIZE PUSH1 0x0 DUP1 RETURNDATACOPY RETURNDATASIZE PUSH1 0x0 REVERT JUMPDEST POP POP JUMP JUMPDEST PUSH1 0x60 PUSH1 0x0 DUP1 PUSH1 0x1 PUSH1 0x0 SWAP1 SLOAD SWAP1 PUSH2 0x100 EXP SWAP1 DIV PUSH20 0xFFFFFFFFFFFFFFFFFFFFFFFFFFFFFFFFFFFFFFFF AND PUSH20 0xFFFFFFFFFFFFFFFFFFFFFFFFFFFFFFFFFFFFFFFF AND CALLER PUSH20 0xFFFFFFFFFFFFFFFFFFFFFFFFFFFFFFFFFFFFFFFF AND EQ PUSH2 0x5DA JUMPI PUSH1 0x40 MLOAD PUSH32 0x8C379A000000000000000000000000000000000000000000000000000000000 DUP2 MSTORE PUSH1 0x4 ADD PUSH2 0x5D1 SWAP1 PUSH2 0x191A JUMP JUMPDEST PUSH1 0x40 MLOAD DUP1 SWAP2 SUB SWAP1 REVERT JUMPDEST DUP4 PUSH1 0x0 DUP1 SLOAD SWAP1 POP GT PUSH2 0x621 JUMPI PUSH1 0x40 MLOAD PUSH32 0x8C379A000000000000000000000000000000000000000000000000000000000 DUP2 MSTORE PUSH1 0x4 ADD PUSH2 0x618 SWAP1 PUSH2 0x19AC JUMP JUMPDEST PUSH1 0x40 MLOAD DUP1 SWAP2 SUB SWAP1 REVERT JUMPDEST PUSH1 0x0 DUP1 DUP6 DUP2 SLOAD DUP2 LT PUSH2 0x636 JUMPI PUSH2 0x635 PUSH2 0x19CC JUMP JUMPDEST JUMPDEST SWAP1 PUSH1 0x0 MSTORE PUSH1 0x20 PUSH1 0x0 KECCAK256 SWAP1 PUSH1 0x3 MUL ADD PUSH1 0x40 MLOAD DUP1 PUSH1 0x80 ADD PUSH1 0x40 MSTORE SWAP1 DUP2 PUSH1 0x0 DUP3 ADD DUP1 SLOAD PUSH2 0x65F SWAP1 PUSH2 0x145A JUMP JUMPDEST DUP1 PUSH1 0x1F ADD PUSH1 0x20 DUP1 SWAP2 DIV MUL PUSH1 0x20 ADD PUSH1 0x40 MLOAD SWAP1 DUP2 ADD PUSH1 0x40 MSTORE DUP1 SWAP3 SWAP2 SWAP1 DUP2 DUP2 MSTORE PUSH1 0x20 ADD DUP3 DUP1 SLOAD PUSH2 0x68B SWAP1 PUSH2 0x145A JUMP JUMPDEST DUP1 ISZERO PUSH2 0x6D8 JUMPI DUP1 PUSH1 0x1F LT PUSH2 0x6AD JUMPI PUSH2 0x100 DUP1 DUP4 SLOAD DIV MUL DUP4 MSTORE SWAP2 PUSH1 0x20 ADD SWAP2 PUSH2 0x6D8 JUMP JUMPDEST DUP3 ADD SWAP2 SWAP1 PUSH1 0x0 MSTORE PUSH1 0x20 PUSH1 0x0 KECCAK256 SWAP1 JUMPDEST DUP2 SLOAD DUP2 MSTORE SWAP1 PUSH1 0x1 ADD SWAP1 PUSH1 0x20 ADD DUP1 DUP4 GT PUSH2 0x6BB JUMPI DUP3 SWAP1 SUB PUSH1 0x1F AND DUP3 ADD SWAP2 JUMPDEST POP POP POP POP POP DUP2 MSTORE PUSH1 0x20 ADD PUSH1 0x1 DUP3 ADD PUSH1 0x0 SWAP1 SLOAD SWAP1 PUSH2 0x100 EXP SWAP1 DIV PUSH20 0xFFFFFFFFFFFFFFFFFFFFFFFFFFFFFFFFFFFFFFFF AND PUSH20 0xFFFFFFFFFFFFFFFFFFFFFFFFFFFFFFFFFFFFFFFF AND PUSH20 0xFFFFFFFFFFFFFFFFFFFFFFFFFFFFFFFFFFFFFFFF AND DUP2 MSTORE PUSH1 0x20 ADD PUSH1 0x1 DUP3 ADD PUSH1 0x14 SWAP1 SLOAD SWAP1 PUSH2 0x100 EXP SWAP1 DIV PUSH1 0xFF AND PUSH1 0x1 DUP2 GT ISZERO PUSH2 0x75C JUMPI PUSH2 0x75B PUSH2 0x1290 JUMP JUMPDEST JUMPDEST PUSH1 0x1 DUP2 GT ISZERO PUSH2 0x76E JUMPI PUSH2 0x76D PUSH2 0x1290 JUMP JUMPDEST JUMPDEST DUP2 MSTORE PUSH1 0x20 ADD PUSH1 0x2 DUP3 ADD SLOAD DUP2 MSTORE POP POP SWAP1 POP DUP1 PUSH1 0x0 ADD MLOAD DUP2 PUSH1 0x60 ADD MLOAD DUP3 PUSH1 0x40 ADD MLOAD PUSH1 0x1 DUP2 GT ISZERO PUSH2 0x79F JUMPI PUSH2 0x79E PUSH2 0x1290 JUMP JUMPDEST JUMPDEST SWAP4 POP SWAP4 POP SWAP4 POP POP SWAP2 SWAP4 SWAP1 SWAP3 POP JUMP JUMPDEST PUSH1 0x0 PUSH1 0x1 PUSH1 0x0 SWAP1 SLOAD SWAP1 PUSH2 0x100 EXP SWAP1 DIV PUSH20 0xFFFFFFFFFFFFFFFFFFFFFFFFFFFFFFFFFFFFFFFF AND PUSH20 0xFFFFFFFFFFFFFFFFFFFFFFFFFFFFFFFFFFFFFFFF AND CALLER PUSH20 0xFFFFFFFFFFFFFFFFFFFFFFFFFFFFFFFFFFFFFFFF AND EQ PUSH2 0x83F JUMPI PUSH1 0x40 MLOAD PUSH32 0x8C379A000000000000000000000000000000000000000000000000000000000 DUP2 MSTORE PUSH1 0x4 ADD PUSH2 0x836 SWAP1 PUSH2 0x191A JUMP JUMPDEST PUSH1 0x40 MLOAD DUP1 SWAP2 SUB SWAP1 REVERT JUMPDEST PUSH1 0x1 PUSH1 0x14 SWAP1 SLOAD SWAP1 PUSH2 0x100 EXP SWAP1 DIV PUSH1 0xFF AND SWAP1 POP SWAP1 JUMP JUMPDEST PUSH1 0x0 PUSH1 0x1 PUSH1 0x0 SWAP1 SLOAD SWAP1 PUSH2 0x100 EXP SWAP1 DIV PUSH20 0xFFFFFFFFFFFFFFFFFFFFFFFFFFFFFFFFFFFFFFFF AND PUSH20 0xFFFFFFFFFFFFFFFFFFFFFFFFFFFFFFFFFFFFFFFF AND CALLER PUSH20 0xFFFFFFFFFFFFFFFFFFFFFFFFFFFFFFFFFFFFFFFF AND EQ PUSH2 0x8E6 JUMPI PUSH1 0x40 MLOAD PUSH32 0x8C379A000000000000000000000000000000000000000000000000000000000 DUP2 MSTORE PUSH1 0x4 ADD PUSH2 0x8DD SWAP1 PUSH2 0x191A JUMP JUMPDEST PUSH1 0x40 MLOAD DUP1 SWAP2 SUB SWAP1 REVERT JUMPDEST PUSH1 0x0 DUP1 SLOAD SWAP1 POP SWAP1 POP SWAP1 JUMP JUMPDEST PUSH1 0x0 DUP2 DUP2 SLOAD DUP2 LT PUSH2 0x901 JUMPI PUSH1 0x0 DUP1 REVERT JUMPDEST SWAP1 PUSH1 0x0 MSTORE PUSH1 0x20 PUSH1 0x0 KECCAK256 SWAP1 PUSH1 0x3 MUL ADD PUSH1 0x0 SWAP2 POP SWAP1 POP DUP1 PUSH1 0x0 ADD DUP1 SLOAD PUSH2 0x924 SWAP1 PUSH2 0x145A JUMP JUMPDEST DUP1 PUSH1 0x1F ADD PUSH1 0x20 DUP1 SWAP2 DIV MUL PUSH1 0x20 ADD PUSH1 0x40 MLOAD SWAP1 DUP2 ADD PUSH1 0x40 MSTORE DUP1 SWAP3 SWAP2 SWAP1 DUP2 DUP2 MSTORE PUSH1 0x20 ADD DUP3 DUP1 SLOAD PUSH2 0x950 SWAP1 PUSH2 0x145A JUMP JUMPDEST DUP1 ISZERO PUSH2 0x99D JUMPI DUP1 PUSH1 0x1F LT PUSH2 0x972 JUMPI PUSH2 0x100 DUP1 DUP4 SLOAD DIV MUL DUP4 MSTORE SWAP2 PUSH1 0x20 ADD SWAP2 PUSH2 0x99D JUMP JUMPDEST DUP3 ADD SWAP2 SWAP1 PUSH1 0x0 MSTORE PUSH1 0x20 PUSH1 0x0 KECCAK256 SWAP1 JUMPDEST DUP2 SLOAD DUP2 MSTORE SWAP1 PUSH1 0x1 ADD SWAP1 PUSH1 0x20 ADD DUP1 DUP4 GT PUSH2 0x980 JUMPI DUP3 SWAP1 SUB PUSH1 0x1F AND DUP3 ADD SWAP2 JUMPDEST POP POP POP POP POP SWAP1 DUP1 PUSH1 0x1 ADD PUSH1 0x0 SWAP1 SLOAD SWAP1 PUSH2 0x100 EXP SWAP1 DIV PUSH20 0xFFFFFFFFFFFFFFFFFFFFFFFFFFFFFFFFFFFFFFFF AND SWAP1 DUP1 PUSH1 0x1 ADD PUSH1 0x14 SWAP1 SLOAD SWAP1 PUSH2 0x100 EXP SWAP1 DIV PUSH1 0xFF AND SWAP1 DUP1 PUSH1 0x2 ADD SLOAD SWAP1 POP DUP5 JUMP JUMPDEST DUP1 PUSH1 0x0 DUP1 SLOAD SWAP1 POP GT PUSH2 0xA2D JUMPI PUSH1 0x40 MLOAD PUSH32 0x8C379A000000000000000000000000000000000000000000000000000000000 DUP2 MSTORE PUSH1 0x4 ADD PUSH2 0xA24 SWAP1 PUSH2 0x19AC JUMP JUMPDEST PUSH1 0x40 MLOAD DUP1 SWAP2 SUB SWAP1 REVERT JUMPDEST PUSH1 0x0 DUP1 DUP3 DUP2 SLOAD DUP2 LT PUSH2 0xA42 JUMPI PUSH2 0xA41 PUSH2 0x19CC JUMP JUMPDEST JUMPDEST SWAP1 PUSH1 0x0 MSTORE PUSH1 0x20 PUSH1 0x0 KECCAK256 SWAP1 PUSH1 0x3 MUL ADD PUSH1 0x40 MLOAD DUP1 PUSH1 0x80 ADD PUSH1 0x40 MSTORE SWAP1 DUP2 PUSH1 0x0 DUP3 ADD DUP1 SLOAD PUSH2 0xA6B SWAP1 PUSH2 0x145A JUMP JUMPDEST DUP1 PUSH1 0x1F ADD PUSH1 0x20 DUP1 SWAP2 DIV MUL PUSH1 0x20 ADD PUSH1 0x40 MLOAD SWAP1 DUP2 ADD PUSH1 0x40 MSTORE DUP1 SWAP3 SWAP2 SWAP1 DUP2 DUP2 MSTORE PUSH1 0x20 ADD DUP3 DUP1 SLOAD PUSH2 0xA97 SWAP1 PUSH2 0x145A JUMP JUMPDEST DUP1 ISZERO PUSH2 0xAE4 JUMPI DUP1 PUSH1 0x1F LT PUSH2 0xAB9 JUMPI PUSH2 0x100 DUP1 DUP4 SLOAD DIV MUL DUP4 MSTORE SWAP2 PUSH1 0x20 ADD SWAP2 PUSH2 0xAE4 JUMP JUMPDEST DUP3 ADD SWAP2 SWAP1 PUSH1 0x0 MSTORE PUSH1 0x20 PUSH1 0x0 KECCAK256 SWAP1 JUMPDEST DUP2 SLOAD DUP2 MSTORE SWAP1 PUSH1 0x1 ADD SWAP1 PUSH1 0x20 ADD DUP1 DUP4 GT PUSH2 0xAC7 JUMPI DUP3 SWAP1 SUB PUSH1 0x1F AND DUP3 ADD SWAP2 JUMPDEST POP POP POP POP POP DUP2 MSTORE PUSH1 0x20 ADD PUSH1 0x1 DUP3 ADD PUSH1 0x0 SWAP1 SLOAD SWAP1 PUSH2 0x100 EXP SWAP1 DIV PUSH20 0xFFFFFFFFFFFFFFFFFFFFFFFFFFFFFFFFFFFFFFFF AND PUSH20 0xFFFFFFFFFFFFFFFFFFFFFFFFFFFFFFFFFFFFFFFF AND PUSH20 0xFFFFFFFFFFFFFFFFFFFFFFFFFFFFFFFFFFFFFFFF AND DUP2 MSTORE PUSH1 0x20 ADD PUSH1 0x1 DUP3 ADD PUSH1 0x14 SWAP1 SLOAD SWAP1 PUSH2 0x100 EXP SWAP1 DIV PUSH1 0xFF AND PUSH1 0x1 DUP2 GT ISZERO PUSH2 0xB68 JUMPI PUSH2 0xB67 PUSH2 0x1290 JUMP JUMPDEST JUMPDEST PUSH1 0x1 DUP2 GT ISZERO PUSH2 0xB7A JUMPI PUSH2 0xB79 PUSH2 0x1290 JUMP JUMPDEST JUMPDEST DUP2 MSTORE PUSH1 0x20 ADD PUSH1 0x2 DUP3 ADD SLOAD DUP2 MSTORE POP POP SWAP1 POP CALLER PUSH20 0xFFFFFFFFFFFFFFFFFFFFFFFFFFFFFFFFFFFFFFFF AND DUP2 PUSH1 0x20 ADD MLOAD PUSH20 0xFFFFFFFFFFFFFFFFFFFFFFFFFFFFFFFFFFFFFFFF AND SUB PUSH2 0xBFC JUMPI PUSH1 0x40 MLOAD PUSH32 0x8C379A000000000000000000000000000000000000000000000000000000000 DUP2 MSTORE PUSH1 0x4 ADD PUSH2 0xBF3 SWAP1 PUSH2 0x1A47 JUMP JUMPDEST PUSH1 0x40 MLOAD DUP1 SWAP2 SUB SWAP1 REVERT JUMPDEST PUSH1 0x0 PUSH1 0x1 DUP2 GT ISZERO PUSH2 0xC10 JUMPI PUSH2 0xC0F PUSH2 0x1290 JUMP JUMPDEST JUMPDEST DUP2 PUSH1 0x40 ADD MLOAD PUSH1 0x1 DUP2 GT ISZERO PUSH2 0xC27 JUMPI PUSH2 0xC26 PUSH2 0x1290 JUMP JUMPDEST JUMPDEST EQ PUSH2 0xC67 JUMPI PUSH1 0x40 MLOAD PUSH32 0x8C379A000000000000000000000000000000000000000000000000000000000 DUP2 MSTORE PUSH1 0x4 ADD PUSH2 0xC5E SWAP1 PUSH2 0x1AB3 JUMP JUMPDEST PUSH1 0x40 MLOAD DUP1 SWAP2 SUB SWAP1 REVERT JUMPDEST CALLVALUE DUP2 PUSH1 0x60 ADD MLOAD EQ PUSH2 0xCAD JUMPI PUSH1 0x40 MLOAD PUSH32 0x8C379A000000000000000000000000000000000000000000000000000000000 DUP2 MSTORE PUSH1 0x4 ADD PUSH2 0xCA4 SWAP1 PUSH2 0x1B1F JUMP JUMPDEST PUSH1 0x40 MLOAD DUP1 SWAP2 SUB SWAP1 REVERT JUMPDEST PUSH1 0x1 DUP2 PUSH1 0x40 ADD SWAP1 PUSH1 0x1 DUP2 GT ISZERO PUSH2 0xCC6 JUMPI PUSH2 0xCC5 PUSH2 0x1290 JUMP JUMPDEST JUMPDEST SWAP1 DUP2 PUSH1 0x1 DUP2 GT ISZERO PUSH2 0xCDA JUMPI PUSH2 0xCD9 PUSH2 0x1290 JUMP JUMPDEST JUMPDEST DUP2 MSTORE POP POP PUSH1 0x0 PUSH1 0x64 PUSH1 0x1 PUSH1 0x14 SWAP1 SLOAD SWAP1 PUSH2 0x100 EXP SWAP1 DIV PUSH1 0xFF AND PUSH1 0xFF AND DUP4 PUSH1 0x60 ADD MLOAD PUSH2 0xD04 SWAP2 SWAP1 PUSH2 0x1B3F JUMP JUMPDEST PUSH2 0xD0E SWAP2 SWAP1 PUSH2 0x1BB0 JUMP JUMPDEST SWAP1 POP DUP2 PUSH1 0x20 ADD MLOAD PUSH20 0xFFFFFFFFFFFFFFFFFFFFFFFFFFFFFFFFFFFFFFFF AND PUSH2 0x8FC DUP3 CALLVALUE PUSH2 0xD3A SWAP2 SWAP1 PUSH2 0x1738 JUMP JUMPDEST SWAP1 DUP2 ISZERO MUL SWAP1 PUSH1 0x40 MLOAD PUSH1 0x0 PUSH1 0x40 MLOAD DUP1 DUP4 SUB DUP2 DUP6 DUP9 DUP9 CALL SWAP4 POP POP POP POP ISZERO DUP1 ISZERO PUSH2 0xD65 JUMPI RETURNDATASIZE PUSH1 0x0 DUP1 RETURNDATACOPY RETURNDATASIZE PUSH1 0x0 REVERT JUMPDEST POP DUP1 PUSH1 0x2 PUSH1 0x0 DUP3 DUP3 SLOAD PUSH2 0xD78 SWAP2 SWAP1 PUSH2 0x1BE1 JUMP JUMPDEST SWAP3 POP POP DUP2 SWAP1 SSTORE POP PUSH1 0x0 DUP3 PUSH1 0x20 ADD MLOAD SWAP1 POP CALLER DUP4 PUSH1 0x20 ADD SWAP1 PUSH20 0xFFFFFFFFFFFFFFFFFFFFFFFFFFFFFFFFFFFFFFFF AND SWAP1 DUP2 PUSH20 0xFFFFFFFFFFFFFFFFFFFFFFFFFFFFFFFFFFFFFFFF AND DUP2 MSTORE POP POP DUP3 PUSH1 0x0 DUP6 DUP2 SLOAD DUP2 LT PUSH2 0xDD5 JUMPI PUSH2 0xDD4 PUSH2 0x19CC JUMP JUMPDEST JUMPDEST SWAP1 PUSH1 0x0 MSTORE PUSH1 0x20 PUSH1 0x0 KECCAK256 SWAP1 PUSH1 0x3 MUL ADD PUSH1 0x0 DUP3 ADD MLOAD DUP2 PUSH1 0x0 ADD SWAP1 DUP2 PUSH2 0xDF8 SWAP2 SWAP1 PUSH2 0x1637 JUMP JUMPDEST POP PUSH1 0x20 DUP3 ADD MLOAD DUP2 PUSH1 0x1 ADD PUSH1 0x0 PUSH2 0x100 EXP DUP2 SLOAD DUP2 PUSH20 0xFFFFFFFFFFFFFFFFFFFFFFFFFFFFFFFFFFFFFFFF MUL NOT AND SWAP1 DUP4 PUSH20 0xFFFFFFFFFFFFFFFFFFFFFFFFFFFFFFFFFFFFFFFF AND MUL OR SWAP1 SSTORE POP PUSH1 0x40 DUP3 ADD MLOAD DUP2 PUSH1 0x1 ADD PUSH1 0x14 PUSH2 0x100 EXP DUP2 SLOAD DUP2 PUSH1 0xFF MUL NOT AND SWAP1 DUP4 PUSH1 0x1 DUP2 GT ISZERO PUSH2 0xE6B JUMPI PUSH2 0xE6A PUSH2 0x1290 JUMP JUMPDEST JUMPDEST MUL OR SWAP1 SSTORE POP PUSH1 0x60 DUP3 ADD MLOAD DUP2 PUSH1 0x2 ADD SSTORE SWAP1 POP POP PUSH32 0xE56A1624645C81765727DE04787A70342EF3765058C66DAEA4CB09EE9513D409 DUP2 CALLER DUP7 DUP7 PUSH1 0x60 ADD MLOAD DUP7 TIMESTAMP PUSH1 0x40 MLOAD PUSH2 0xEBA SWAP7 SWAP6 SWAP5 SWAP4 SWAP3 SWAP2 SWAP1 PUSH2 0x1C15 JUMP JUMPDEST PUSH1 0x40 MLOAD DUP1 SWAP2 SUB SWAP1 LOG1 POP POP POP POP JUMP JUMPDEST PUSH1 0x40 MLOAD DUP1 PUSH1 0x80 ADD PUSH1 0x40 MSTORE DUP1 PUSH1 0x60 DUP2 MSTORE PUSH1 0x20 ADD PUSH1 0x0 PUSH20 0xFFFFFFFFFFFFFFFFFFFFFFFFFFFFFFFFFFFFFFFF AND DUP2 MSTORE PUSH1 0x20 ADD PUSH1 0x0 PUSH1 0x1 DUP2 GT ISZERO PUSH2 0xF0B JUMPI PUSH2 0xF0A PUSH2 0x1290 JUMP JUMPDEST JUMPDEST DUP2 MSTORE PUSH1 0x20 ADD PUSH1 0x0 DUP2 MSTORE POP SWAP1 JUMP JUMPDEST PUSH1 0x0 PUSH1 0x40 MLOAD SWAP1 POP SWAP1 JUMP JUMPDEST PUSH1 0x0 DUP1 REVERT JUMPDEST PUSH1 0x0 DUP1 REVERT JUMPDEST PUSH1 0x0 DUP1 REVERT JUMPDEST PUSH1 0x0 DUP1 REVERT JUMPDEST PUSH1 0x0 PUSH1 0x1F NOT PUSH1 0x1F DUP4 ADD AND SWAP1 POP SWAP2 SWAP1 POP JUMP JUMPDEST PUSH32 0x4E487B7100000000000000000000000000000000000000000000000000000000 PUSH1 0x0 MSTORE PUSH1 0x41 PUSH1 0x4 MSTORE PUSH1 0x24 PUSH1 0x0 REVERT JUMPDEST PUSH2 0xF7F DUP3 PUSH2 0xF36 JUMP JUMPDEST DUP2 ADD DUP2 DUP2 LT PUSH8 0xFFFFFFFFFFFFFFFF DUP3 GT OR ISZERO PUSH2 0xF9E JUMPI PUSH2 0xF9D PUSH2 0xF47 JUMP JUMPDEST JUMPDEST DUP1 PUSH1 0x40 MSTORE POP POP POP JUMP JUMPDEST PUSH1 0x0 PUSH2 0xFB1 PUSH2 0xF18 JUMP JUMPDEST SWAP1 POP PUSH2 0xFBD DUP3 DUP3 PUSH2 0xF76 JUMP JUMPDEST SWAP2 SWAP1 POP JUMP JUMPDEST PUSH1 0x0 PUSH8 0xFFFFFFFFFFFFFFFF DUP3 GT ISZERO PUSH2 0xFDD JUMPI PUSH2 0xFDC PUSH2 0xF47 JUMP JUMPDEST JUMPDEST PUSH2 0xFE6 DUP3 PUSH2 0xF36 JUMP JUMPDEST SWAP1 POP PUSH1 0x20 DUP2 ADD SWAP1 POP SWAP2 SWAP1 POP JUMP JUMPDEST DUP3 DUP2 DUP4 CALLDATACOPY PUSH1 0x0 DUP4 DUP4 ADD MSTORE POP POP POP JUMP JUMPDEST PUSH1 0x0 PUSH2 0x1015 PUSH2 0x1010 DUP5 PUSH2 0xFC2 JUMP JUMPDEST PUSH2 0xFA7 JUMP JUMPDEST SWAP1 POP DUP3 DUP2 MSTORE PUSH1 0x20 DUP2 ADD DUP5 DUP5 DUP5 ADD GT ISZERO PUSH2 0x1031 JUMPI PUSH2 0x1030 PUSH2 0xF31 JUMP JUMPDEST JUMPDEST PUSH2 0x103C DUP5 DUP3 DUP6 PUSH2 0xFF3 JUMP JUMPDEST POP SWAP4 SWAP3 POP POP POP JUMP JUMPDEST PUSH1 0x0 DUP3 PUSH1 0x1F DUP4 ADD SLT PUSH2 0x1059 JUMPI PUSH2 0x1058 PUSH2 0xF2C JUMP JUMPDEST JUMPDEST DUP2 CALLDATALOAD PUSH2 0x1069 DUP5 DUP3 PUSH1 0x20 DUP7 ADD PUSH2 0x1002 JUMP JUMPDEST SWAP2 POP POP SWAP3 SWAP2 POP POP JUMP JUMPDEST PUSH1 0x0 DUP2 SWAP1 POP SWAP2 SWAP1 POP JUMP JUMPDEST PUSH2 0x1085 DUP2 PUSH2 0x1072 JUMP JUMPDEST DUP2 EQ PUSH2 0x1090 JUMPI PUSH1 0x0 DUP1 REVERT JUMPDEST POP JUMP JUMPDEST PUSH1 0x0 DUP2 CALLDATALOAD SWAP1 POP PUSH2 0x10A2 DUP2 PUSH2 0x107C JUMP JUMPDEST SWAP3 SWAP2 POP POP JUMP JUMPDEST PUSH1 0x0 DUP1 PUSH1 0x40 DUP4 DUP6 SUB SLT ISZERO PUSH2 0x10BF JUMPI PUSH2 0x10BE PUSH2 0xF22 JUMP JUMPDEST JUMPDEST PUSH1 0x0 DUP4 ADD CALLDATALOAD PUSH8 0xFFFFFFFFFFFFFFFF DUP2 GT ISZERO PUSH2 0x10DD JUMPI PUSH2 0x10DC PUSH2 0xF27 JUMP JUMPDEST JUMPDEST PUSH2 0x10E9 DUP6 DUP3 DUP7 ADD PUSH2 0x1044 JUMP JUMPDEST SWAP3 POP POP PUSH1 0x20 PUSH2 0x10FA DUP6 DUP3 DUP7 ADD PUSH2 0x1093 JUMP JUMPDEST SWAP2 POP POP SWAP3 POP SWAP3 SWAP1 POP JUMP JUMPDEST PUSH1 0x0 PUSH1 0x20 DUP3 DUP5 SUB SLT ISZERO PUSH2 0x111A JUMPI PUSH2 0x1119 PUSH2 0xF22 JUMP JUMPDEST JUMPDEST PUSH1 0x0 PUSH2 0x1128 DUP5 DUP3 DUP6 ADD PUSH2 0x1093 JUMP JUMPDEST SWAP2 POP POP SWAP3 SWAP2 POP POP JUMP JUMPDEST PUSH1 0x0 DUP2 MLOAD SWAP1 POP SWAP2 SWAP1 POP JUMP JUMPDEST PUSH1 0x0 DUP3 DUP3 MSTORE PUSH1 0x20 DUP3 ADD SWAP1 POP SWAP3 SWAP2 POP POP JUMP JUMPDEST PUSH1 0x0 JUMPDEST DUP4 DUP2 LT ISZERO PUSH2 0x116B JUMPI DUP1 DUP3 ADD MLOAD DUP2 DUP5 ADD MSTORE PUSH1 0x20 DUP2 ADD SWAP1 POP PUSH2 0x1150 JUMP JUMPDEST PUSH1 0x0 DUP5 DUP5 ADD MSTORE POP POP POP POP JUMP JUMPDEST PUSH1 0x0 PUSH2 0x1182 DUP3 PUSH2 0x1131 JUMP JUMPDEST PUSH2 0x118C DUP2 DUP6 PUSH2 0x113C JUMP JUMPDEST SWAP4 POP PUSH2 0x119C DUP2 DUP6 PUSH1 0x20 DUP7 ADD PUSH2 0x114D JUMP JUMPDEST PUSH2 0x11A5 DUP2 PUSH2 0xF36 JUMP JUMPDEST DUP5 ADD SWAP2 POP POP SWAP3 SWAP2 POP POP JUMP JUMPDEST PUSH2 0x11B9 DUP2 PUSH2 0x1072 JUMP JUMPDEST DUP3 MSTORE POP POP JUMP JUMPDEST PUSH1 0x0 PUSH1 0xFF DUP3 AND SWAP1 POP SWAP2 SWAP1 POP JUMP JUMPDEST PUSH2 0x11D5 DUP2 PUSH2 0x11BF JUMP JUMPDEST DUP3 MSTORE POP POP JUMP JUMPDEST PUSH1 0x0 PUSH1 0x60 DUP3 ADD SWAP1 POP DUP2 DUP2 SUB PUSH1 0x0 DUP4 ADD MSTORE PUSH2 0x11F5 DUP2 DUP7 PUSH2 0x1177 JUMP JUMPDEST SWAP1 POP PUSH2 0x1204 PUSH1 0x20 DUP4 ADD DUP6 PUSH2 0x11B0 JUMP JUMPDEST PUSH2 0x1211 PUSH1 0x40 DUP4 ADD DUP5 PUSH2 0x11CC JUMP JUMPDEST SWAP5 SWAP4 POP POP POP POP JUMP JUMPDEST PUSH1 0x0 PUSH1 0x20 DUP3 ADD SWAP1 POP PUSH2 0x122E PUSH1 0x0 DUP4 ADD DUP5 PUSH2 0x11CC JUMP JUMPDEST SWAP3 SWAP2 POP POP JUMP JUMPDEST PUSH1 0x0 PUSH1 0x20 DUP3 ADD SWAP1 POP PUSH2 0x1249 PUSH1 0x0 DUP4 ADD DUP5 PUSH2 0x11B0 JUMP JUMPDEST SWAP3 SWAP2 POP POP JUMP JUMPDEST PUSH1 0x0 PUSH20 0xFFFFFFFFFFFFFFFFFFFFFFFFFFFFFFFFFFFFFFFF DUP3 AND SWAP1 POP SWAP2 SWAP1 POP JUMP JUMPDEST PUSH1 0x0 PUSH2 0x127A DUP3 PUSH2 0x124F JUMP JUMPDEST SWAP1 POP SWAP2 SWAP1 POP JUMP JUMPDEST PUSH2 0x128A DUP2 PUSH2 0x126F JUMP JUMPDEST DUP3 MSTORE POP POP JUMP JUMPDEST PUSH32 0x4E487B7100000000000000000000000000000000000000000000000000000000 PUSH1 0x0 MSTORE PUSH1 0x21 PUSH1 0x4 MSTORE PUSH1 0x24 PUSH1 0x0 REVERT JUMPDEST PUSH1 0x2 DUP2 LT PUSH2 0x12D0 JUMPI PUSH2 0x12CF PUSH2 0x1290 JUMP JUMPDEST JUMPDEST POP JUMP JUMPDEST PUSH1 0x0 DUP2 SWAP1 POP PUSH2 0x12E1 DUP3 PUSH2 0x12BF JUMP JUMPDEST SWAP2 SWAP1 POP JUMP JUMPDEST PUSH1 0x0 PUSH2 0x12F1 DUP3 PUSH2 0x12D3 JUMP JUMPDEST SWAP1 POP SWAP2 SWAP1 POP JUMP JUMPDEST PUSH2 0x1301 DUP2 PUSH2 0x12E6 JUMP JUMPDEST DUP3 MSTORE POP POP JUMP JUMPDEST PUSH1 0x0 PUSH1 0x80 DUP3 ADD SWAP1 POP DUP2 DUP2 SUB PUSH1 0x0 DUP4 ADD MSTORE PUSH2 0x1321 DUP2 DUP8 PUSH2 0x1177 JUMP JUMPDEST SWAP1 POP PUSH2 0x1330 PUSH1 0x20 DUP4 ADD DUP7 PUSH2 0x1281 JUMP JUMPDEST PUSH2 0x133D PUSH1 0x40 DUP4 ADD DUP6 PUSH2 0x12F8 JUMP JUMPDEST PUSH2 0x134A PUSH1 0x60 DUP4 ADD DUP5 PUSH2 0x11B0 JUMP JUMPDEST SWAP6 SWAP5 POP POP POP POP POP JUMP JUMPDEST PUSH32 0x4E616D6520666F72206173736574206973207265717569726564000000000000 PUSH1 0x0 DUP3 ADD MSTORE POP JUMP JUMPDEST PUSH1 0x0 PUSH2 0x1389 PUSH1 0x1A DUP4 PUSH2 0x113C JUMP JUMPDEST SWAP2 POP PUSH2 0x1394 DUP3 PUSH2 0x1353 JUMP JUMPDEST PUSH1 0x20 DUP3 ADD SWAP1 POP SWAP2 SWAP1 POP JUMP JUMPDEST PUSH1 0x0 PUSH1 0x20 DUP3 ADD SWAP1 POP DUP2 DUP2 SUB PUSH1 0x0 DUP4 ADD MSTORE PUSH2 0x13B8 DUP2 PUSH2 0x137C JUMP JUMPDEST SWAP1 POP SWAP2 SWAP1 POP JUMP JUMPDEST PUSH32 0x5072696365206D7573742062652067726561746572207468616E207A65726F21 PUSH1 0x0 DUP3 ADD MSTORE POP JUMP JUMPDEST PUSH1 0x0 PUSH2 0x13F5 PUSH1 0x20 DUP4 PUSH2 0x113C JUMP JUMPDEST SWAP2 POP PUSH2 0x1400 DUP3 PUSH2 0x13BF JUMP JUMPDEST PUSH1 0x20 DUP3 ADD SWAP1 POP SWAP2 SWAP1 POP JUMP JUMPDEST PUSH1 0x0 PUSH1 0x20 DUP3 ADD SWAP1 POP DUP2 DUP2 SUB PUSH1 0x0 DUP4 ADD MSTORE PUSH2 0x1424 DUP2 PUSH2 0x13E8 JUMP JUMPDEST SWAP1 POP SWAP2 SWAP1 POP JUMP JUMPDEST PUSH32 0x4E487B7100000000000000000000000000000000000000000000000000000000 PUSH1 0x0 MSTORE PUSH1 0x22 PUSH1 0x4 MSTORE PUSH1 0x24 PUSH1 0x0 REVERT JUMPDEST PUSH1 0x0 PUSH1 0x2 DUP3 DIV SWAP1 POP PUSH1 0x1 DUP3 AND DUP1 PUSH2 0x1472 JUMPI PUSH1 0x7F DUP3 AND SWAP2 POP JUMPDEST PUSH1 0x20 DUP3 LT DUP2 SUB PUSH2 0x1485 JUMPI PUSH2 0x1484 PUSH2 0x142B JUMP JUMPDEST JUMPDEST POP SWAP2 SWAP1 POP JUMP JUMPDEST PUSH1 0x0 DUP2 SWAP1 POP DUP2 PUSH1 0x0 MSTORE PUSH1 0x20 PUSH1 0x0 KECCAK256 SWAP1 POP SWAP2 SWAP1 POP JUMP JUMPDEST PUSH1 0x0 PUSH1 0x20 PUSH1 0x1F DUP4 ADD DIV SWAP1 POP SWAP2 SWAP1 POP JUMP JUMPDEST PUSH1 0x0 DUP3 DUP3 SHL SWAP1 POP SWAP3 SWAP2 POP POP JUMP JUMPDEST PUSH1 0x0 PUSH1 0x8 DUP4 MUL PUSH2 0x14ED PUSH32 0xFFFFFFFFFFFFFFFFFFFFFFFFFFFFFFFFFFFFFFFFFFFFFFFFFFFFFFFFFFFFFFFF DUP3 PUSH2 0x14B0 JUMP JUMPDEST PUSH2 0x14F7 DUP7 DUP4 PUSH2 0x14B0 JUMP JUMPDEST SWAP6 POP DUP1 NOT DUP5 AND SWAP4 POP DUP1 DUP7 AND DUP5 OR SWAP3 POP POP POP SWAP4 SWAP3 POP POP POP JUMP JUMPDEST PUSH1 0x0 DUP2 SWAP1 POP SWAP2 SWAP1 POP JUMP JUMPDEST PUSH1 0x0 PUSH2 0x1534 PUSH2 0x152F PUSH2 0x152A DUP5 PUSH2 0x1072 JUMP JUMPDEST PUSH2 0x150F JUMP JUMPDEST PUSH2 0x1072 JUMP JUMPDEST SWAP1 POP SWAP2 SWAP1 POP JUMP JUMPDEST PUSH1 0x0 DUP2 SWAP1 POP SWAP2 SWAP1 POP JUMP JUMPDEST PUSH2 0x154E DUP4 PUSH2 0x1519 JUMP JUMPDEST PUSH2 0x1562 PUSH2 0x155A DUP3 PUSH2 0x153B JUMP JUMPDEST DUP5 DUP5 SLOAD PUSH2 0x14BD JUMP JUMPDEST DUP3 SSTORE POP POP POP POP JUMP JUMPDEST PUSH1 0x0 SWAP1 JUMP JUMPDEST PUSH2 0x1577 PUSH2 0x156A JUMP JUMPDEST PUSH2 0x1582 DUP2 DUP5 DUP5 PUSH2 0x1545 JUMP JUMPDEST POP POP POP JUMP JUMPDEST JUMPDEST DUP2 DUP2 LT ISZERO PUSH2 0x15A6 JUMPI PUSH2 0x159B PUSH1 0x0 DUP3 PUSH2 0x156F JUMP JUMPDEST PUSH1 0x1 DUP2 ADD SWAP1 POP PUSH2 0x1588 JUMP JUMPDEST POP POP JUMP JUMPDEST PUSH1 0x1F DUP3 GT ISZERO PUSH2 0x15EB JUMPI PUSH2 0x15BC DUP2 PUSH2 0x148B JUMP JUMPDEST PUSH2 0x15C5 DUP5 PUSH2 0x14A0 JUMP JUMPDEST DUP2 ADD PUSH1 0x20 DUP6 LT ISZERO PUSH2 0x15D4 JUMPI DUP2 SWAP1 POP JUMPDEST PUSH2 0x15E8 PUSH2 0x15E0 DUP6 PUSH2 0x14A0 JUMP JUMPDEST DUP4 ADD DUP3 PUSH2 0x1587 JUMP JUMPDEST POP POP JUMPDEST POP POP POP JUMP JUMPDEST PUSH1 0x0 DUP3 DUP3 SHR SWAP1 POP SWAP3 SWAP2 POP POP JUMP JUMPDEST PUSH1 0x0 PUSH2 0x160E PUSH1 0x0 NOT DUP5 PUSH1 0x8 MUL PUSH2 0x15F0 JUMP JUMPDEST NOT DUP1 DUP4 AND SWAP2 POP POP SWAP3 SWAP2 POP POP JUMP JUMPDEST PUSH1 0x0 PUSH2 0x1627 DUP4 DUP4 PUSH2 0x15FD JUMP JUMPDEST SWAP2 POP DUP3 PUSH1 0x2 MUL DUP3 OR SWAP1 POP SWAP3 SWAP2 POP POP JUMP JUMPDEST PUSH2 0x1640 DUP3 PUSH2 0x1131 JUMP JUMPDEST PUSH8 0xFFFFFFFFFFFFFFFF DUP2 GT ISZERO PUSH2 0x1659 JUMPI PUSH2 0x1658 PUSH2 0xF47 JUMP JUMPDEST JUMPDEST PUSH2 0x1663 DUP3 SLOAD PUSH2 0x145A JUMP JUMPDEST PUSH2 0x166E DUP3 DUP3 DUP6 PUSH2 0x15AA JUMP JUMPDEST PUSH1 0x0 PUSH1 0x20 SWAP1 POP PUSH1 0x1F DUP4 GT PUSH1 0x1 DUP2 EQ PUSH2 0x16A1 JUMPI PUSH1 0x0 DUP5 ISZERO PUSH2 0x168F JUMPI DUP3 DUP8 ADD MLOAD SWAP1 POP JUMPDEST PUSH2 0x1699 DUP6 DUP3 PUSH2 0x161B JUMP JUMPDEST DUP7 SSTORE POP PUSH2 0x1701 JUMP JUMPDEST PUSH1 0x1F NOT DUP5 AND PUSH2 0x16AF DUP7 PUSH2 0x148B JUMP JUMPDEST PUSH1 0x0 JUMPDEST DUP3 DUP2 LT ISZERO PUSH2 0x16D7 JUMPI DUP5 DUP10 ADD MLOAD DUP3 SSTORE PUSH1 0x1 DUP3 ADD SWAP2 POP PUSH1 0x20 DUP6 ADD SWAP5 POP PUSH1 0x20 DUP2 ADD SWAP1 POP PUSH2 0x16B2 JUMP JUMPDEST DUP7 DUP4 LT ISZERO PUSH2 0x16F4 JUMPI DUP5 DUP10 ADD MLOAD PUSH2 0x16F0 PUSH1 0x1F DUP10 AND DUP3 PUSH2 0x15FD JUMP JUMPDEST DUP4 SSTORE POP JUMPDEST PUSH1 0x1 PUSH1 0x2 DUP9 MUL ADD DUP9 SSTORE POP POP POP JUMPDEST POP POP POP POP POP POP JUMP JUMPDEST PUSH32 0x4E487B7100000000000000000000000000000000000000000000000000000000 PUSH1 0x0 MSTORE PUSH1 0x11 PUSH1 0x4 MSTORE PUSH1 0x24 PUSH1 0x0 REVERT JUMPDEST PUSH1 0x0 PUSH2 0x1743 DUP3 PUSH2 0x1072 JUMP JUMPDEST SWAP2 POP PUSH2 0x174E DUP4 PUSH2 0x1072 JUMP JUMPDEST SWAP3 POP DUP3 DUP3 SUB SWAP1 POP DUP2 DUP2 GT ISZERO PUSH2 0x1766 JUMPI PUSH2 0x1765 PUSH2 0x1709 JUMP JUMPDEST JUMPDEST SWAP3 SWAP2 POP POP JUMP JUMPDEST PUSH1 0x0 PUSH1 0x60 DUP3 ADD SWAP1 POP PUSH2 0x1781 PUSH1 0x0 DUP4 ADD DUP7 PUSH2 0x1281 JUMP JUMPDEST DUP2 DUP2 SUB PUSH1 0x20 DUP4 ADD MSTORE PUSH2 0x1793 DUP2 DUP6 PUSH2 0x1177 JUMP JUMPDEST SWAP1 POP PUSH2 0x17A2 PUSH1 0x40 DUP4 ADD DUP5 PUSH2 0x11B0 JUMP JUMPDEST SWAP5 SWAP4 POP POP POP POP JUMP JUMPDEST PUSH32 0x4F6E6C79206D61726B6574206F776E65722063616E207769746864726177206D PUSH1 0x0 DUP3 ADD MSTORE PUSH32 0x6F6E657921000000000000000000000000000000000000000000000000000000 PUSH1 0x20 DUP3 ADD MSTORE POP JUMP JUMPDEST PUSH1 0x0 PUSH2 0x1806 PUSH1 0x25 DUP4 PUSH2 0x113C JUMP JUMPDEST SWAP2 POP PUSH2 0x1811 DUP3 PUSH2 0x17AA JUMP JUMPDEST PUSH1 0x40 DUP3 ADD SWAP1 POP SWAP2 SWAP1 POP JUMP JUMPDEST PUSH1 0x0 PUSH1 0x20 DUP3 ADD SWAP1 POP DUP2 DUP2 SUB PUSH1 0x0 DUP4 ADD MSTORE PUSH2 0x1835 DUP2 PUSH2 0x17F9 JUMP JUMPDEST SWAP1 POP SWAP2 SWAP1 POP JUMP JUMPDEST PUSH32 0x4E6F742061636365707461626C65206D6F6E65792076616C7565210000000000 PUSH1 0x0 DUP3 ADD MSTORE POP JUMP JUMPDEST PUSH1 0x0 PUSH2 0x1872 PUSH1 0x1B DUP4 PUSH2 0x113C JUMP JUMPDEST SWAP2 POP PUSH2 0x187D DUP3 PUSH2 0x183C JUMP JUMPDEST PUSH1 0x20 DUP3 ADD SWAP1 POP SWAP2 SWAP1 POP JUMP JUMPDEST PUSH1 0x0 PUSH1 0x20 DUP3 ADD SWAP1 POP DUP2 DUP2 SUB PUSH1 0x0 DUP4 ADD MSTORE PUSH2 0x18A1 DUP2 PUSH2 0x1865 JUMP JUMPDEST SWAP1 POP SWAP2 SWAP1 POP JUMP JUMPDEST PUSH32 0x4F6E6C79206D61726B6574206F776E65722063616E2063616C6C207468697320 PUSH1 0x0 DUP3 ADD MSTORE PUSH32 0x6D6574686F642100000000000000000000000000000000000000000000000000 PUSH1 0x20 DUP3 ADD MSTORE POP JUMP JUMPDEST PUSH1 0x0 PUSH2 0x1904 PUSH1 0x27 DUP4 PUSH2 0x113C JUMP JUMPDEST SWAP2 POP PUSH2 0x190F DUP3 PUSH2 0x18A8 JUMP JUMPDEST PUSH1 0x40 DUP3 ADD SWAP1 POP SWAP2 SWAP1 POP JUMP JUMPDEST PUSH1 0x0 PUSH1 0x20 DUP3 ADD SWAP1 POP DUP2 DUP2 SUB PUSH1 0x0 DUP4 ADD MSTORE PUSH2 0x1933 DUP2 PUSH2 0x18F7 JUMP JUMPDEST SWAP1 POP SWAP2 SWAP1 POP JUMP JUMPDEST PUSH32 0x546865206173736574207265666572656E6365206973206E6F742076616C6964 PUSH1 0x0 DUP3 ADD MSTORE PUSH32 0x2100000000000000000000000000000000000000000000000000000000000000 PUSH1 0x20 DUP3 ADD MSTORE POP JUMP JUMPDEST PUSH1 0x0 PUSH2 0x1996 PUSH1 0x21 DUP4 PUSH2 0x113C JUMP JUMPDEST SWAP2 POP PUSH2 0x19A1 DUP3 PUSH2 0x193A JUMP JUMPDEST PUSH1 0x40 DUP3 ADD SWAP1 POP SWAP2 SWAP1 POP JUMP JUMPDEST PUSH1 0x0 PUSH1 0x20 DUP3 ADD SWAP1 POP DUP2 DUP2 SUB PUSH1 0x0 DUP4 ADD MSTORE PUSH2 0x19C5 DUP2 PUSH2 0x1989 JUMP JUMPDEST SWAP1 POP SWAP2 SWAP1 POP JUMP JUMPDEST PUSH32 0x4E487B7100000000000000000000000000000000000000000000000000000000 PUSH1 0x0 MSTORE PUSH1 0x32 PUSH1 0x4 MSTORE PUSH1 0x24 PUSH1 0x0 REVERT JUMPDEST PUSH32 0x54686973206974656D20697320796F7572732100000000000000000000000000 PUSH1 0x0 DUP3 ADD MSTORE POP JUMP JUMPDEST PUSH1 0x0 PUSH2 0x1A31 PUSH1 0x13 DUP4 PUSH2 0x113C JUMP JUMPDEST SWAP2 POP PUSH2 0x1A3C DUP3 PUSH2 0x19FB JUMP JUMPDEST PUSH1 0x20 DUP3 ADD SWAP1 POP SWAP2 SWAP1 POP JUMP JUMPDEST PUSH1 0x0 PUSH1 0x20 DUP3 ADD SWAP1 POP DUP2 DUP2 SUB PUSH1 0x0 DUP4 ADD MSTORE PUSH2 0x1A60 DUP2 PUSH2 0x1A24 JUMP JUMPDEST SWAP1 POP SWAP2 SWAP1 POP JUMP JUMPDEST PUSH32 0x54686973206974656D206973206E6F7420666F722073616C6521000000000000 PUSH1 0x0 DUP3 ADD MSTORE POP JUMP JUMPDEST PUSH1 0x0 PUSH2 0x1A9D PUSH1 0x1A DUP4 PUSH2 0x113C JUMP JUMPDEST SWAP2 POP PUSH2 0x1AA8 DUP3 PUSH2 0x1A67 JUMP JUMPDEST PUSH1 0x20 DUP3 ADD SWAP1 POP SWAP2 SWAP1 POP JUMP JUMPDEST PUSH1 0x0 PUSH1 0x20 DUP3 ADD SWAP1 POP DUP2 DUP2 SUB PUSH1 0x0 DUP4 ADD MSTORE PUSH2 0x1ACC DUP2 PUSH2 0x1A90 JUMP JUMPDEST SWAP1 POP SWAP2 SWAP1 POP JUMP JUMPDEST PUSH32 0x56616C756520616E642070726963652061726520646966666572656E74210000 PUSH1 0x0 DUP3 ADD MSTORE POP JUMP JUMPDEST PUSH1 0x0 PUSH2 0x1B09 PUSH1 0x1E DUP4 PUSH2 0x113C JUMP JUMPDEST SWAP2 POP PUSH2 0x1B14 DUP3 PUSH2 0x1AD3 JUMP JUMPDEST PUSH1 0x20 DUP3 ADD SWAP1 POP SWAP2 SWAP1 POP JUMP JUMPDEST PUSH1 0x0 PUSH1 0x20 DUP3 ADD SWAP1 POP DUP2 DUP2 SUB PUSH1 0x0 DUP4 ADD MSTORE PUSH2 0x1B38 DUP2 PUSH2 0x1AFC JUMP JUMPDEST SWAP1 POP SWAP2 SWAP1 POP JUMP JUMPDEST PUSH1 0x0 PUSH2 0x1B4A DUP3 PUSH2 0x1072 JUMP JUMPDEST SWAP2 POP PUSH2 0x1B55 DUP4 PUSH2 0x1072 JUMP JUMPDEST SWAP3 POP DUP3 DUP3 MUL PUSH2 0x1B63 DUP2 PUSH2 0x1072 JUMP JUMPDEST SWAP2 POP DUP3 DUP3 DIV DUP5 EQ DUP4 ISZERO OR PUSH2 0x1B7A JUMPI PUSH2 0x1B79 PUSH2 0x1709 JUMP JUMPDEST JUMPDEST POP SWAP3 SWAP2 POP POP JUMP JUMPDEST PUSH32 0x4E487B7100000000000000000000000000000000000000000000000000000000 PUSH1 0x0 MSTORE PUSH1 0x12 PUSH1 0x4 MSTORE PUSH1 0x24 PUSH1 0x0 REVERT JUMPDEST PUSH1 0x0 PUSH2 0x1BBB DUP3 PUSH2 0x1072 JUMP JUMPDEST SWAP2 POP PUSH2 0x1BC6 DUP4 PUSH2 0x1072 JUMP JUMPDEST SWAP3 POP DUP3 PUSH2 0x1BD6 JUMPI PUSH2 0x1BD5 PUSH2 0x1B81 JUMP JUMPDEST JUMPDEST DUP3 DUP3 DIV SWAP1 POP SWAP3 SWAP2 POP POP JUMP JUMPDEST PUSH1 0x0 PUSH2 0x1BEC DUP3 PUSH2 0x1072 JUMP JUMPDEST SWAP2 POP PUSH2 0x1BF7 DUP4 PUSH2 0x1072 JUMP JUMPDEST SWAP3 POP DUP3 DUP3 ADD SWAP1 POP DUP1 DUP3 GT ISZERO PUSH2 0x1C0F JUMPI PUSH2 0x1C0E PUSH2 0x1709 JUMP JUMPDEST JUMPDEST SWAP3 SWAP2 POP POP JUMP JUMPDEST PUSH1 0x0 PUSH1 0xC0 DUP3 ADD SWAP1 POP PUSH2 0x1C2A PUSH1 0x0 DUP4 ADD DUP10 PUSH2 0x1281 JUMP JUMPDEST PUSH2 0x1C37 PUSH1 0x20 DUP4 ADD DUP9 PUSH2 0x1281 JUMP JUMPDEST PUSH2 0x1C44 PUSH1 0x40 DUP4 ADD DUP8 PUSH2 0x11B0 JUMP JUMPDEST PUSH2 0x1C51 PUSH1 0x60 DUP4 ADD DUP7 PUSH2 0x11B0 JUMP JUMPDEST PUSH2 0x1C5E PUSH1 0x80 DUP4 ADD DUP6 PUSH2 0x11B0 JUMP JUMPDEST PUSH2 0x1C6B PUSH1 0xA0 DUP4 ADD DUP5 PUSH2 0x11B0 JUMP JUMPDEST SWAP8 SWAP7 POP POP POP POP POP POP POP JUMP INVALID LOG2 PUSH5 0x6970667358 0x22 SLT KECCAK256 CALL 0xBC POP DUP9 CREATE OR ADDRESS SDIV SDIV 0xDB DUP6 JUMPDEST 0xAF 0x4C BYTE 0xD3 SWAP4 0xEB 0x5F DELEGATECALL PUSH14 0x7205D4C102D45959A5DC9764736F PUSH13 0x63430008130033000000000000 "},"methodIdentifiers":{"addAsset(string,uint256)":"1bc7ffe9","assetData(uint256)":"ac823a7e","assets(uint256)":"cf35bdd0","assetsCount()":"cd9df190","buy(uint256)":"d96a094a","sharePercent()":"c15edf5f","withdraw(uint256)":"2e1a7d4d"}}}}}