{
  "_format": "hh-sol-artifact-1",
  "contractName": "DigitalAssetMarket",
  "sourceName": "contracts/DAM.sol",
  "abi": [
    {
      "inputs": [
        {
          "internalType": "uint8",
          "name": "_shareOfSale",
          "type": "uint8"
        }
      ],
      "stateMutability": "nonpayable",
      "type": "constructor"
    },
    {
      "anonymous": false,
      "inputs": [
        {
          "indexed": false,
          "internalType": "address",
          "name": "seller",
          "type": "address"
        },
        {
          "indexed": false,
          "internalType": "string",
          "name": "name",
          "type": "string"
        },
        {
          "indexed": false,
          "internalType": "uint256",
          "name": "index",
          "type": "uint256"
        }
      ],
      "name": "NewAsset",
      "type": "event"
    },
    {
      "anonymous": false,
      "inputs": [
        {
          "indexed": false,
          "internalType": "address",
          "name": "seller",
          "type": "address"
        },
        {
          "indexed": false,
          "internalType": "address",
          "name": "buyer",
          "type": "address"
        },
        {
          "indexed": false,
          "internalType": "uint256",
          "name": "assetId",
          "type": "uint256"
        },
        {
          "indexed": false,
          "internalType": "uint256",
          "name": "price",
          "type": "uint256"
        },
        {
          "indexed": false,
          "internalType": "uint256",
          "name": "share",
          "type": "uint256"
        },
        {
          "indexed": false,
          "internalType": "uint256",
          "name": "time",
          "type": "uint256"
        }
      ],
      "name": "NewSale",
      "type": "event"
    },
    {
      "inputs": [
        {
          "internalType": "string",
          "name": "_name",
          "type": "string"
        },
        {
          "internalType": "uint256",
          "name": "_price",
          "type": "uint256"
        }
      ],
      "name": "addAsset",
      "outputs": [],
      "stateMutability": "nonpayable",
      "type": "function"
    },
    {
      "inputs": [
        {
          "internalType": "uint256",
          "name": "_assetIndex",
          "type": "uint256"
        }
      ],
      "name": "assetData",
      "outputs": [
        {
          "internalType": "string",
          "name": "",
          "type": "string"
        },
        {
          "internalType": "uint256",
          "name": "",
          "type": "uint256"
        },
        {
          "internalType": "uint8",
          "name": "",
          "type": "uint8"
        }
      ],
      "stateMutability": "view",
      "type": "function"
    },
    {
      "inputs": [
        {
          "internalType": "uint256",
          "name": "",
          "type": "uint256"
        }
      ],
      "name": "assets",
      "outputs": [
        {
          "internalType": "string",
          "name": "name",
          "type": "string"
        },
        {
          "internalType": "address",
          "name": "owner",
          "type": "address"
        },
        {
          "internalType": "enum DigitalAssetMarket.AssetState",
          "name": "state",
          "type": "uint8"
        },
        {
          "internalType": "uint256",
          "name": "price",
          "type": "uint256"
        }
      ],
      "stateMutability": "view",
      "type": "function"
    },
    {
      "inputs": [],
      "name": "assetsCount",
      "outputs": [
        {
          "internalType": "uint256",
          "name": "",
          "type": "uint256"
        }
      ],
      "stateMutability": "view",
      "type": "function"
    },
    {
      "inputs": [
        {
          "internalType": "uint256",
          "name": "_assetIndex",
          "type": "uint256"
        }
      ],
      "name": "buy",
      "outputs": [],
      "stateMutability": "payable",
      "type": "function"
    },
    {
      "inputs": [],
      "name": "sharePercent",
      "outputs": [
        {
          "internalType": "uint8",
          "name": "",
          "type": "uint8"
        }
      ],
      "stateMutability": "view",
      "type": "function"
    },
    {
      "inputs": [
        {
          "internalType": "uint256",
          "name": "_amount",
          "type": "uint256"
        }
      ],
      "name": "withdraw",
      "outputs": [],
      "stateMutability": "nonpayable",
      "type": "function"
    }
  ],
  "bytecode": "0x60806040523480156200001157600080fd5b5060405162001dcb38038062001dcb8339818101604052810190620000379190620000dd565b33600160006101000a81548173ffffffffffffffffffffffffffffffffffffffff021916908373ffffffffffffffffffffffffffffffffffffffff16021790555080600160146101000a81548160ff021916908360ff160217905550506200010f565b600080fd5b600060ff82169050919050565b620000b7816200009f565b8114620000c357600080fd5b50565b600081519050620000d781620000ac565b92915050565b600060208284031215620000f657620000f56200009a565b5b60006200010684828501620000c6565b91505092915050565b611cac806200011f6000396000f3fe6080604052600436106100705760003560e01c8063c15edf5f1161004e578063c15edf5f14610106578063cd9df19014610131578063cf35bdd01461015c578063d96a094a1461019c57610070565b80631bc7ffe9146100755780632e1a7d4d1461009e578063ac823a7e146100c7575b600080fd5b34801561008157600080fd5b5061009c600480360381019061009791906110a8565b6101b8565b005b3480156100aa57600080fd5b506100c560048036038101906100c09190611104565b6103df565b005b3480156100d357600080fd5b506100ee60048036038101906100e99190611104565b610545565b6040516100fd939291906111db565b60405180910390f35b34801561011257600080fd5b5061011b6107ad565b6040516101289190611219565b60405180910390f35b34801561013d57600080fd5b50610146610854565b6040516101539190611234565b60405180910390f35b34801561016857600080fd5b50610183600480360381019061017e9190611104565b6108f1565b6040516101939493929190611307565b60405180910390f35b6101b660048036038101906101b19190611104565b6109e6565b005b60008251116101fc576040517f08c379a00000000000000000000000000000000000000000000000000000000081526004016101f39061139f565b60405180910390fd5b6000811161023f576040517f08c379a00000000000000000000000000000000000000000000000000000000081526004016102369061140b565b60405180910390fd5b610247610ec8565b82816000018190525033816020019073ffffffffffffffffffffffffffffffffffffffff16908173ffffffffffffffffffffffffffffffffffffffff16815250506000816040019060018111156102a1576102a0611290565b5b908160018111156102b5576102b4611290565b5b8152505081816060018181525050600081908060018154018082558091505060019003906000526020600020906003020160009091909190915060008201518160000190816103049190611637565b5060208201518160010160006101000a81548173ffffffffffffffffffffffffffffffffffffffff021916908373ffffffffffffffffffffffffffffffffffffffff16021790555060408201518160010160146101000a81548160ff0219169083600181111561037757610376611290565b5b02179055506060820151816002015550506000600160008054905061039c9190611738565b90507faab46008cd26ed1bca30689c348d8e458fee75c349407c27063a00cfadc443f63385836040516103d19392919061176c565b60405180910390a150505050565b600160009054906101000a900473ffffffffffffffffffffffffffffffffffffffff1673ffffffffffffffffffffffffffffffffffffffff163373ffffffffffffffffffffffffffffffffffffffff161461046f576040517f08c379a00000000000000000000000000000000000000000000000000000000081526004016104669061181c565b60405180910390fd5b60008111801561048157506002548111155b6104c0576040517f08c379a00000000000000000000000000000000000000000000000000000000081526004016104b790611888565b60405180910390fd5b80600260008282546104d29190611738565b92505081905550600160009054906101000a900473ffffffffffffffffffffffffffffffffffffffff1673ffffffffffffffffffffffffffffffffffffffff166108fc829081150290604051600060405180830381858888f19350505050158015610541573d6000803e3d6000fd5b5050565b6060600080600160009054906101000a900473ffffffffffffffffffffffffffffffffffffffff1673ffffffffffffffffffffffffffffffffffffffff163373ffffffffffffffffffffffffffffffffffffffff16146105da576040517f08c379a00000000000000000000000000000000000000000000000000000000081526004016105d19061191a565b60405180910390fd5b8360008054905011610621576040517f08c379a0000000000000000000000000000000000000000000000000000000008152600401610618906119ac565b60405180910390fd5b6000808581548110610636576106356119cc565b5b906000526020600020906003020160405180608001604052908160008201805461065f9061145a565b80601f016020809104026020016040519081016040528092919081815260200182805461068b9061145a565b80156106d85780601f106106ad576101008083540402835291602001916106d8565b820191906000526020600020905b8154815290600101906020018083116106bb57829003601f168201915b505050505081526020016001820160009054906101000a900473ffffffffffffffffffffffffffffffffffffffff1673ffffffffffffffffffffffffffffffffffffffff1673ffffffffffffffffffffffffffffffffffffffff1681526020016001820160149054906101000a900460ff16600181111561075c5761075b611290565b5b600181111561076e5761076d611290565b5b81526020016002820154815250509050806000015181606001518260400151600181111561079f5761079e611290565b5b935093509350509193909250565b6000600160009054906101000a900473ffffffffffffffffffffffffffffffffffffffff1673ffffffffffffffffffffffffffffffffffffffff163373ffffffffffffffffffffffffffffffffffffffff161461083f576040517f08c379a00000000000000000000000000000000000000000000000000000000081526004016108369061191a565b60405180910390fd5b600160149054906101000a900460ff16905090565b6000600160009054906101000a900473ffffffffffffffffffffffffffffffffffffffff1673ffffffffffffffffffffffffffffffffffffffff163373ffffffffffffffffffffffffffffffffffffffff16146108e6576040517f08c379a00000000000000000000000000000000000000000000000000000000081526004016108dd9061191a565b60405180910390fd5b600080549050905090565b6000818154811061090157600080fd5b90600052602060002090600302016000915090508060000180546109249061145a565b80601f01602080910402602001604051908101604052809291908181526020018280546109509061145a565b801561099d5780601f106109725761010080835404028352916020019161099d565b820191906000526020600020905b81548152906001019060200180831161098057829003601f168201915b5050505050908060010160009054906101000a900473ffffffffffffffffffffffffffffffffffffffff16908060010160149054906101000a900460ff16908060020154905084565b8060008054905011610a2d576040517f08c379a0000000000000000000000000000000000000000000000000000000008152600401610a24906119ac565b60405180910390fd5b6000808281548110610a4257610a416119cc565b5b9060005260206000209060030201604051806080016040529081600082018054610a6b9061145a565b80601f0160208091040260200160405190810160405280929190818152602001828054610a979061145a565b8015610ae45780601f10610ab957610100808354040283529160200191610ae4565b820191906000526020600020905b815481529060010190602001808311610ac757829003601f168201915b505050505081526020016001820160009054906101000a900473ffffffffffffffffffffffffffffffffffffffff1673ffffffffffffffffffffffffffffffffffffffff1673ffffffffffffffffffffffffffffffffffffffff1681526020016001820160149054906101000a900460ff166001811115610b6857610b67611290565b5b6001811115610b7a57610b79611290565b5b815260200160028201548152505090503373ffffffffffffffffffffffffffffffffffffffff16816020015173ffffffffffffffffffffffffffffffffffffffff1603610bfc576040517f08c379a0000000000000000000000000000000000000000000000000000000008152600401610bf390611a47565b60405180910390fd5b60006001811115610c1057610c0f611290565b5b81604001516001811115610c2757610c26611290565b5b14610c67576040517f08c379a0000000000000000000000000000000000000000000000000000000008152600401610c5e90611ab3565b60405180910390fd5b34816060015114610cad576040517f08c379a0000000000000000000000000000000000000000000000000000000008152600401610ca490611b1f565b60405180910390fd5b600181604001906001811115610cc657610cc5611290565b5b90816001811115610cda57610cd9611290565b5b8152505060006064600160149054906101000a900460ff1660ff168360600151610d049190611b3f565b610d0e9190611bb0565b9050816020015173ffffffffffffffffffffffffffffffffffffffff166108fc8234610d3a9190611738565b9081150290604051600060405180830381858888f19350505050158015610d65573d6000803e3d6000fd5b508060026000828254610d789190611be1565b9250508190555060008260200151905033836020019073ffffffffffffffffffffffffffffffffffffffff16908173ffffffffffffffffffffffffffffffffffffffff16815250508260008581548110610dd557610dd46119cc565b5b90600052602060002090600302016000820151816000019081610df89190611637565b5060208201518160010160006101000a81548173ffffffffffffffffffffffffffffffffffffffff021916908373ffffffffffffffffffffffffffffffffffffffff16021790555060408201518160010160146101000a81548160ff02191690836001811115610e6b57610e6a611290565b5b0217905550606082015181600201559050507fe56a1624645c81765727de04787a70342ef3765058c66daea4cb09ee9513d40981338686606001518642604051610eba96959493929190611c15565b60405180910390a150505050565b604051806080016040528060608152602001600073ffffffffffffffffffffffffffffffffffffffff16815260200160006001811115610f0b57610f0a611290565b5b8152602001600081525090565b6000604051905090565b600080fd5b600080fd5b600080fd5b600080fd5b6000601f19601f8301169050919050565b7f4e487b7100000000000000000000000000000000000000000000000000000000600052604160045260246000fd5b610f7f82610f36565b810181811067ffffffffffffffff82111715610f9e57610f9d610f47565b5b80604052505050565b6000610fb1610f18565b9050610fbd8282610f76565b919050565b600067ffffffffffffffff821115610fdd57610fdc610f47565b5b610fe682610f36565b9050602081019050919050565b82818337600083830152505050565b600061101561101084610fc2565b610fa7565b90508281526020810184848401111561103157611030610f31565b5b61103c848285610ff3565b509392505050565b600082601f83011261105957611058610f2c565b5b8135611069848260208601611002565b91505092915050565b6000819050919050565b61108581611072565b811461109057600080fd5b50565b6000813590506110a28161107c565b92915050565b600080604083850312156110bf576110be610f22565b5b600083013567ffffffffffffffff8111156110dd576110dc610f27565b5b6110e985828601611044565b92505060206110fa85828601611093565b9150509250929050565b60006020828403121561111a57611119610f22565b5b600061112884828501611093565b91505092915050565b600081519050919050565b600082825260208201905092915050565b60005b8381101561116b578082015181840152602081019050611150565b60008484015250505050565b600061118282611131565b61118c818561113c565b935061119c81856020860161114d565b6111a581610f36565b840191505092915050565b6111b981611072565b82525050565b600060ff82169050919050565b6111d5816111bf565b82525050565b600060608201905081810360008301526111f58186611177565b905061120460208301856111b0565b61121160408301846111cc565b949350505050565b600060208201905061122e60008301846111cc565b92915050565b600060208201905061124960008301846111b0565b92915050565b600073ffffffffffffffffffffffffffffffffffffffff82169050919050565b600061127a8261124f565b9050919050565b61128a8161126f565b82525050565b7f4e487b7100000000000000000000000000000000000000000000000000000000600052602160045260246000fd5b600281106112d0576112cf611290565b5b50565b60008190506112e1826112bf565b919050565b60006112f1826112d3565b9050919050565b611301816112e6565b82525050565b600060808201905081810360008301526113218187611177565b90506113306020830186611281565b61133d60408301856112f8565b61134a60608301846111b0565b95945050505050565b7f4e616d6520666f72206173736574206973207265717569726564000000000000600082015250565b6000611389601a8361113c565b915061139482611353565b602082019050919050565b600060208201905081810360008301526113b88161137c565b9050919050565b7f5072696365206d7573742062652067726561746572207468616e207a65726f21600082015250565b60006113f560208361113c565b9150611400826113bf565b602082019050919050565b60006020820190508181036000830152611424816113e8565b9050919050565b7f4e487b7100000000000000000000000000000000000000000000000000000000600052602260045260246000fd5b6000600282049050600182168061147257607f821691505b6020821081036114855761148461142b565b5b50919050565b60008190508160005260206000209050919050565b60006020601f8301049050919050565b600082821b905092915050565b6000600883026114ed7fffffffffffffffffffffffffffffffffffffffffffffffffffffffffffffffff826114b0565b6114f786836114b0565b95508019841693508086168417925050509392505050565b6000819050919050565b600061153461152f61152a84611072565b61150f565b611072565b9050919050565b6000819050919050565b61154e83611519565b61156261155a8261153b565b8484546114bd565b825550505050565b600090565b61157761156a565b611582818484611545565b505050565b5b818110156115a65761159b60008261156f565b600181019050611588565b5050565b601f8211156115eb576115bc8161148b565b6115c5846114a0565b810160208510156115d4578190505b6115e86115e0856114a0565b830182611587565b50505b505050565b600082821c905092915050565b600061160e600019846008026115f0565b1980831691505092915050565b600061162783836115fd565b9150826002028217905092915050565b61164082611131565b67ffffffffffffffff81111561165957611658610f47565b5b611663825461145a565b61166e8282856115aa565b600060209050601f8311600181146116a1576000841561168f578287015190505b611699858261161b565b865550611701565b601f1984166116af8661148b565b60005b828110156116d7578489015182556001820191506020850194506020810190506116b2565b868310156116f457848901516116f0601f8916826115fd565b8355505b6001600288020188555050505b505050505050565b7f4e487b7100000000000000000000000000000000000000000000000000000000600052601160045260246000fd5b600061174382611072565b915061174e83611072565b925082820390508181111561176657611765611709565b5b92915050565b60006060820190506117816000830186611281565b81810360208301526117938185611177565b90506117a260408301846111b0565b949350505050565b7f4f6e6c79206d61726b6574206f776e65722063616e207769746864726177206d60008201527f6f6e657921000000000000000000000000000000000000000000000000000000602082015250565b600061180660258361113c565b9150611811826117aa565b604082019050919050565b60006020820190508181036000830152611835816117f9565b9050919050565b7f4e6f742061636365707461626c65206d6f6e65792076616c7565210000000000600082015250565b6000611872601b8361113c565b915061187d8261183c565b602082019050919050565b600060208201905081810360008301526118a181611865565b9050919050565b7f4f6e6c79206d61726b6574206f776e65722063616e2063616c6c20746869732060008201527f6d6574686f642100000000000000000000000000000000000000000000000000602082015250565b600061190460278361113c565b915061190f826118a8565b604082019050919050565b60006020820190508181036000830152611933816118f7565b9050919050565b7f546865206173736574207265666572656e6365206973206e6f742076616c696460008201527f2100000000000000000000000000000000000000000000000000000000000000602082015250565b600061199660218361113c565b91506119a18261193a565b604082019050919050565b600060208201905081810360008301526119c581611989565b9050919050565b7f4e487b7100000000000000000000000000000000000000000000000000000000600052603260045260246000fd5b7f54686973206974656d20697320796f7572732100000000000000000000000000600082015250565b6000611a3160138361113c565b9150611a3c826119fb565b602082019050919050565b60006020820190508181036000830152611a6081611a24565b9050919050565b7f54686973206974656d206973206e6f7420666f722073616c6521000000000000600082015250565b6000611a9d601a8361113c565b9150611aa882611a67565b602082019050919050565b60006020820190508181036000830152611acc81611a90565b9050919050565b7f56616c756520616e642070726963652061726520646966666572656e74210000600082015250565b6000611b09601e8361113c565b9150611b1482611ad3565b602082019050919050565b60006020820190508181036000830152611b3881611afc565b9050919050565b6000611b4a82611072565b9150611b5583611072565b9250828202611b6381611072565b91508282048414831517611b7a57611b79611709565b5b5092915050565b7f4e487b7100000000000000000000000000000000000000000000000000000000600052601260045260246000fd5b6000611bbb82611072565b9150611bc683611072565b925082611bd657611bd5611b81565b5b828204905092915050565b6000611bec82611072565b9150611bf783611072565b9250828201905080821115611c0f57611c0e611709565b5b92915050565b600060c082019050611c2a6000830189611281565b611c376020830188611281565b611c4460408301876111b0565b611c5160608301866111b0565b611c5e60808301856111b0565b611c6b60a08301846111b0565b97965050505050505056fea2646970667358221220f1bc5088f017300505db855baf4c1ad393eb5ff46d7205d4c102d45959a5dc9764736f6c63430008130033",
  "linkReferences": {},
  "deployedLinkReferences": {}
}